{
  "contractName": "DeCourse",
  "abi": [
    {
      "inputs": [],
      "payable": false,
      "stateMutability": "nonpayable",
      "type": "constructor"
    },
    {
      "anonymous": false,
      "inputs": [
        {
          "indexed": true,
          "internalType": "uint256",
          "name": "_courseId",
          "type": "uint256"
        },
        {
          "indexed": false,
          "internalType": "string",
          "name": "_description",
          "type": "string"
        },
        {
          "indexed": false,
          "internalType": "string",
          "name": "_title",
          "type": "string"
        }
      ],
      "name": "CreateCourse",
      "type": "event"
    },
    {
      "anonymous": false,
      "inputs": [
        {
          "indexed": true,
          "internalType": "address",
          "name": "_student",
          "type": "address"
        },
        {
          "indexed": false,
          "internalType": "uint256",
          "name": "_value",
          "type": "uint256"
        },
        {
          "indexed": false,
          "internalType": "uint256",
          "name": "_courseRemainBalance",
          "type": "uint256"
        }
      ],
      "name": "Deposit",
      "type": "event"
    },
    {
      "anonymous": false,
      "inputs": [
        {
          "indexed": true,
          "internalType": "address",
          "name": "_student",
          "type": "address"
        },
        {
          "indexed": false,
          "internalType": "uint256",
          "name": "_value",
          "type": "uint256"
        },
        {
          "indexed": false,
          "internalType": "uint256",
          "name": "_courseRemainBalance",
          "type": "uint256"
        }
      ],
      "name": "Refund",
      "type": "event"
    },
    {
      "constant": true,
      "inputs": [
        {
          "internalType": "address",
          "name": "",
          "type": "address"
        }
      ],
      "name": "addressToTuitionFee",
      "outputs": [
        {
          "internalType": "uint256",
          "name": "",
          "type": "uint256"
        }
      ],
      "payable": false,
      "stateMutability": "view",
      "type": "function"
    },
    {
      "constant": true,
      "inputs": [
        {
          "internalType": "uint256",
          "name": "",
          "type": "uint256"
        }
      ],
      "name": "courses",
      "outputs": [
        {
          "internalType": "uint256",
          "name": "id",
          "type": "uint256"
        },
        {
          "internalType": "string",
          "name": "title",
          "type": "string"
        },
        {
          "internalType": "string",
          "name": "description",
          "type": "string"
        },
        {
          "internalType": "address",
          "name": "teacher",
          "type": "address"
        },
        {
          "internalType": "uint256",
          "name": "tuitionFee",
          "type": "uint256"
        },
        {
          "internalType": "uint256",
          "name": "courseBalance",
          "type": "uint256"
        }
      ],
      "payable": false,
      "stateMutability": "view",
      "type": "function"
    },
    {
      "constant": true,
      "inputs": [],
      "name": "owner",
      "outputs": [
        {
          "internalType": "address",
          "name": "",
          "type": "address"
        }
      ],
      "payable": false,
      "stateMutability": "view",
      "type": "function"
    },
    {
      "constant": false,
      "inputs": [
        {
          "internalType": "string",
          "name": "_title",
          "type": "string"
        },
        {
          "internalType": "string",
          "name": "_description",
          "type": "string"
        },
        {
          "internalType": "enum DeCourse.Role",
          "name": "_role",
          "type": "uint8"
        }
      ],
      "name": "createCourse",
      "outputs": [
        {
          "internalType": "uint256",
          "name": "",
          "type": "uint256"
        }
      ],
      "payable": true,
      "stateMutability": "payable",
      "type": "function"
    },
    {
      "constant": false,
      "inputs": [
        {
          "internalType": "uint256",
          "name": "_courseId",
          "type": "uint256"
        },
        {
          "internalType": "enum DeCourse.Role",
          "name": "_role",
          "type": "uint8"
        }
      ],
      "name": "joinCourse",
      "outputs": [],
      "payable": true,
      "stateMutability": "payable",
      "type": "function"
    },
    {
      "constant": false,
      "inputs": [
        {
          "internalType": "uint256",
          "name": "_courseId",
          "type": "uint256"
        }
      ],
      "name": "leaveCourse",
      "outputs": [
        {
          "internalType": "uint256",
          "name": "",
          "type": "uint256"
        }
      ],
      "payable": true,
      "stateMutability": "payable",
      "type": "function"
    },
    {
      "constant": true,
      "inputs": [],
      "name": "getCourseStates",
      "outputs": [
        {
          "components": [
            {
              "internalType": "uint256",
              "name": "id",
              "type": "uint256"
            },
            {
              "internalType": "string",
              "name": "title",
              "type": "string"
            },
            {
              "internalType": "string",
              "name": "description",
              "type": "string"
            },
            {
              "internalType": "address",
              "name": "teacher",
              "type": "address"
            },
            {
              "internalType": "address[]",
              "name": "students",
              "type": "address[]"
            },
            {
              "internalType": "uint256",
              "name": "tuitionFee",
              "type": "uint256"
            },
            {
              "internalType": "uint256",
              "name": "courseBalance",
              "type": "uint256"
            }
          ],
          "internalType": "struct DeCourse.CourseJoinState[]",
          "name": "",
          "type": "tuple[]"
        }
      ],
      "payable": false,
      "stateMutability": "view",
      "type": "function"
    },
    {
      "constant": true,
      "inputs": [
        {
          "internalType": "uint256",
          "name": "_courseId",
          "type": "uint256"
        }
      ],
      "name": "getCourseState",
      "outputs": [
        {
          "components": [
            {
              "internalType": "uint256",
              "name": "id",
              "type": "uint256"
            },
            {
              "internalType": "string",
              "name": "title",
              "type": "string"
            },
            {
              "internalType": "string",
              "name": "description",
              "type": "string"
            },
            {
              "internalType": "address",
              "name": "teacher",
              "type": "address"
            },
            {
              "internalType": "address[]",
              "name": "students",
              "type": "address[]"
            },
            {
              "internalType": "uint256",
              "name": "tuitionFee",
              "type": "uint256"
            },
            {
              "internalType": "uint256",
              "name": "courseBalance",
              "type": "uint256"
            }
          ],
          "internalType": "struct DeCourse.CourseJoinState",
          "name": "",
          "type": "tuple"
        }
      ],
      "payable": false,
      "stateMutability": "view",
      "type": "function"
    },
    {
      "constant": true,
      "inputs": [
        {
          "internalType": "uint256",
          "name": "_courseId",
          "type": "uint256"
        }
      ],
      "name": "getStudentsByCourseId",
      "outputs": [
        {
          "internalType": "address[]",
          "name": "",
          "type": "address[]"
        }
      ],
      "payable": false,
      "stateMutability": "view",
      "type": "function"
    },
    {
      "constant": true,
      "inputs": [
        {
          "internalType": "uint256",
          "name": "_courseId",
          "type": "uint256"
        },
        {
          "internalType": "address",
          "name": "_address",
          "type": "address"
        }
      ],
      "name": "isAddressInCourse",
      "outputs": [
        {
          "internalType": "bool",
          "name": "",
          "type": "bool"
        }
      ],
      "payable": false,
      "stateMutability": "view",
      "type": "function"
    },
    {
      "constant": true,
      "inputs": [
        {
          "internalType": "uint256",
          "name": "_courseId",
          "type": "uint256"
        }
      ],
      "name": "getTeacher",
      "outputs": [
        {
          "internalType": "address",
          "name": "",
          "type": "address"
        }
      ],
      "payable": false,
      "stateMutability": "view",
      "type": "function"
    },
    {
      "constant": false,
      "inputs": [],
      "name": "withdraw",
      "outputs": [],
      "payable": false,
      "stateMutability": "nonpayable",
      "type": "function"
    },
    {
      "constant": true,
      "inputs": [],
      "name": "getOwner",
      "outputs": [
        {
          "internalType": "address",
          "name": "",
          "type": "address"
        }
      ],
      "payable": false,
      "stateMutability": "view",
      "type": "function"
    },
    {
      "constant": true,
      "inputs": [
        {
          "internalType": "address",
          "name": "_address",
          "type": "address"
        }
      ],
      "name": "getAddressName",
      "outputs": [
        {
          "internalType": "string",
          "name": "",
          "type": "string"
        }
      ],
      "payable": false,
      "stateMutability": "view",
      "type": "function"
    },
    {
      "constant": false,
      "inputs": [
        {
          "internalType": "address",
          "name": "_address",
          "type": "address"
        },
        {
          "internalType": "string",
          "name": "_name",
          "type": "string"
        }
      ],
      "name": "setAddressName",
      "outputs": [],
      "payable": false,
      "stateMutability": "nonpayable",
      "type": "function"
    }
  ],
  "bytecode": "0x608060405234801561001057600080fd5b50336000806101000a81548173ffffffffffffffffffffffffffffffffffffffff021916908373ffffffffffffffffffffffffffffffffffffffff160217905550612f00806100606000396000f3fe608060405260043610610105576000357c0100000000000000000000000000000000000000000000000000000000900480638da5cb5b116100a7578063c6d8354c11610076578063c6d8354c14610310578063dd2e41341461034d578063e3df00a71461038a578063ed072a07146103c757610105565b80638da5cb5b1461024a57806396f979d214610275578063988c2c55146102b7578063b105f01d146102d357610105565b80636c30cf29116100e35780636c30cf29146101755780637c33a6cc146101b2578063893d20e8146101ef5780638a2492bb1461021a57610105565b80633037c5ad1461010a5780633ccfd60b146101335780635e0099a81461014a575b600080fd5b34801561011657600080fd5b50610131600480360361012c91908101906123fb565b6103f7565b005b34801561013f57600080fd5b5061014861044f565b005b34801561015657600080fd5b5061015f6104af565b60405161016c9190612ac8565b60405180910390f35b34801561018157600080fd5b5061019c600480360361019791908101906124ce565b61078c565b6040516101a99190612aa6565b60405180910390f35b3480156101be57600080fd5b506101d960048036036101d491908101906124f7565b610936565b6040516101e69190612aea565b60405180910390f35b3480156101fb57600080fd5b506102046109a9565b6040516102119190612a8b565b60405180910390f35b610234600480360361022f919081019061244f565b6109d2565b6040516102419190612be0565b60405180910390f35b34801561025657600080fd5b5061025f610eae565b60405161026c9190612a8b565b60405180910390f35b34801561028157600080fd5b5061029c600480360361029791908101906124ce565b610ed3565b6040516102ae96959493929190612bfb565b60405180910390f35b6102d160048036036102cc9190810190612533565b61106c565b005b3480156102df57600080fd5b506102fa60048036036102f591908101906124ce565b611781565b6040516103079190612a8b565b60405180910390f35b34801561031c57600080fd5b50610337600480360361033291908101906123d2565b6117c9565b6040516103449190612be0565b60405180910390f35b34801561035957600080fd5b50610374600480360361036f91908101906123d2565b6117e1565b6040516103819190612b05565b60405180910390f35b34801561039657600080fd5b506103b160048036036103ac91908101906124ce565b6118c2565b6040516103be9190612bbe565b60405180910390f35b6103e160048036036103dc91908101906124ce565b611b36565b6040516103ee9190612be0565b60405180910390f35b80600160008473ffffffffffffffffffffffffffffffffffffffff1673ffffffffffffffffffffffffffffffffffffffff168152602001908152602001600020908051906020019061044a929190612028565b505050565b3373ffffffffffffffffffffffffffffffffffffffff166108fc3073ffffffffffffffffffffffffffffffffffffffff16319081150290604051600060405180830381858888f193505050501580156104ac573d6000803e3d6000fd5b50565b6060806005805490506040519080825280602002602001820160405280156104f157816020015b6104de6120a8565b8152602001906001900390816104d65790505b50905060008090505b6005805490508110156107845760006005828154811061051657fe5b906000526020600020906009020190506040518060e0016040528082600001548152602001826001018054600181600116156101000203166002900480601f0160208091040260200160405190810160405280929190818152602001828054600181600116156101000203166002900480156105d35780601f106105a8576101008083540402835291602001916105d3565b820191906000526020600020905b8154815290600101906020018083116105b657829003601f168201915b50505050508152602001826002018054600181600116156101000203166002900480601f0160208091040260200160405190810160405280929190818152602001828054600181600116156101000203166002900480156106755780601f1061064a57610100808354040283529160200191610675565b820191906000526020600020905b81548152906001019060200180831161065857829003601f168201915b505050505081526020018260030160009054906101000a900473ffffffffffffffffffffffffffffffffffffffff1673ffffffffffffffffffffffffffffffffffffffff1681526020018260040180548060200260200160405190810160405280929190818152602001828054801561074357602002820191906000526020600020905b8160009054906101000a900473ffffffffffffffffffffffffffffffffffffffff1673ffffffffffffffffffffffffffffffffffffffff16815260200190600101908083116106f9575b5050505050815260200182600501548152602001826008015481525083838151811061076b57fe5b60200260200101819052505080806001019150506104fa565b508091505090565b606060006005838154811061079d57fe5b906000526020600020906009020190506000809050606082600401805490506040519080825280602002602001820160405280156107ea5781602001602082028038833980820191505090505b50905060008090505b836004018054905081101561092a576001151584600701600086600401848154811061081b57fe5b9060005260206000200160009054906101000a900473ffffffffffffffffffffffffffffffffffffffff1673ffffffffffffffffffffffffffffffffffffffff1673ffffffffffffffffffffffffffffffffffffffff16815260200190815260200160002060009054906101000a900460ff161515141561091d578360040181815481106108a557fe5b9060005260206000200160009054906101000a900473ffffffffffffffffffffffffffffffffffffffff168284815181106108dc57fe5b602002602001019073ffffffffffffffffffffffffffffffffffffffff16908173ffffffffffffffffffffffffffffffffffffffff16815250506001830192505b80806001019150506107f3565b50809350505050919050565b60006005838154811061094557fe5b906000526020600020906009020160070160008373ffffffffffffffffffffffffffffffffffffffff1673ffffffffffffffffffffffffffffffffffffffff16815260200190815260200160002060009054906101000a900460ff16905092915050565b60008060009054906101000a900473ffffffffffffffffffffffffffffffffffffffff16905090565b60006060600060058054905090506109e86120fb565b6040518060e00160405280838152602001888152602001878152602001600073ffffffffffffffffffffffffffffffffffffffff168152602001848152602001670de0b6b3a764000081526020016000815250905060058190806001815401808255809150509060018203906000526020600020906009020160009091929091909150600082015181600001556020820151816001019080519060200190610a9192919061214e565b506040820151816002019080519060200190610aae92919061214e565b5060608201518160030160006101000a81548173ffffffffffffffffffffffffffffffffffffffff021916908373ffffffffffffffffffffffffffffffffffffffff1602179055506080820151816004019080519060200190610b129291906121ce565b5060a0820151816005015560c08201518160080155505050600160058381548110610b3957fe5b906000526020600020906009020160070160003373ffffffffffffffffffffffffffffffffffffffff1673ffffffffffffffffffffffffffffffffffffffff16815260200190815260200160002060006101000a81548160ff021916908315150217905550600180811115610baa57fe5b856001811115610bb657fe5b1415610d28578060a00151341015610c03576040517f08c379a0000000000000000000000000000000000000000000000000000000008152600401610bfa90612b9e565b60405180910390fd5b3460058381548110610c1157fe5b90600052602060002090600902016006016000855181526020019081526020016000208190555060058281548110610c4557fe5b90600052602060002090600902016004013390806001815401808255809150509060018203906000526020600020016000909192909190916101000a81548173ffffffffffffffffffffffffffffffffffffffff021916908373ffffffffffffffffffffffffffffffffffffffff16021790555050600360003373ffffffffffffffffffffffffffffffffffffffff1673ffffffffffffffffffffffffffffffffffffffff168152602001908152602001600020829080600181540180825580915050906001820390600052602060002001600090919290919091505550610e0f565b60006001811115610d3557fe5b856001811115610d4157fe5b1415610e0e573360058381548110610d5557fe5b906000526020600020906009020160030160006101000a81548173ffffffffffffffffffffffffffffffffffffffff021916908373ffffffffffffffffffffffffffffffffffffffff160217905550600260003373ffffffffffffffffffffffffffffffffffffffff1673ffffffffffffffffffffffffffffffffffffffff1681526020019081526020016000208290806001815401808255809150509060018203906000526020600020016000909192909190915055505b5b817fa6074b4bf1eb8a09002d6af7f6a6bf21af64da2c1a4961d1c8bc14b4e930e27560058481548110610e3e57fe5b906000526020600020906009020160010160058581548110610e5c57fe5b9060005260206000209060090201600201604051610e7b929190612b27565b60405180910390a260058281548110610e9057fe5b90600052602060002090600902016000015493505050509392505050565b6000809054906101000a900473ffffffffffffffffffffffffffffffffffffffff1681565b60058181548110610ee057fe5b9060005260206000209060090201600091509050806000015490806001018054600181600116156101000203166002900480601f016020809104026020016040519081016040528092919081815260200182805460018160011615610100020316600290048015610f925780601f10610f6757610100808354040283529160200191610f92565b820191906000526020600020905b815481529060010190602001808311610f7557829003601f168201915b505050505090806002018054600181600116156101000203166002900480601f0160208091040260200160405190810160405280929190818152602001828054600181600116156101000203166002900480156110305780601f1061100557610100808354040283529160200191611030565b820191906000526020600020905b81548152906001019060200180831161101357829003601f168201915b5050505050908060030160009054906101000a900473ffffffffffffffffffffffffffffffffffffffff16908060050154908060080154905086565b818160018081111561107a57fe5b81600181111561108657fe5b14156111f85760008090505b600360003373ffffffffffffffffffffffffffffffffffffffff1673ffffffffffffffffffffffffffffffffffffffff168152602001908152602001600020805490508110156111f2576000600360003373ffffffffffffffffffffffffffffffffffffffff1673ffffffffffffffffffffffffffffffffffffffff168152602001908152602001600020828154811061112857fe5b90600052602060002001549050600015156005828154811061114657fe5b906000526020600020906009020160070160003373ffffffffffffffffffffffffffffffffffffffff1673ffffffffffffffffffffffffffffffffffffffff16815260200190815260200160002060009054906101000a900460ff161515146111e4576040517f08c379a00000000000000000000000000000000000000000000000000000000081526004016111db90612b5e565b60405180910390fd5b508080600101915050611092565b50611380565b6000600181111561120557fe5b81600181111561121157fe5b141561137f5760008090505b600260003373ffffffffffffffffffffffffffffffffffffffff1673ffffffffffffffffffffffffffffffffffffffff1681526020019081526020016000208054905081101561137d576000600260003373ffffffffffffffffffffffffffffffffffffffff1673ffffffffffffffffffffffffffffffffffffffff16815260200190815260200160002082815481106112b357fe5b9060005260206000200154905060001515600582815481106112d157fe5b906000526020600020906009020160070160003373ffffffffffffffffffffffffffffffffffffffff1673ffffffffffffffffffffffffffffffffffffffff16815260200190815260200160002060009054906101000a900460ff1615151461136f576040517f08c379a000000000000000000000000000000000000000000000000000000000815260040161136690612b5e565b60405180910390fd5b50808060010191505061121d565b505b5b60006005858154811061138f57fe5b9060005260206000209060090201905060018160070160003373ffffffffffffffffffffffffffffffffffffffff1673ffffffffffffffffffffffffffffffffffffffff16815260200190815260200160002060006101000a81548160ff02191690831515021790555060018081111561140557fe5b84600181111561141157fe5b14156115e657806005015434101561145e576040517f08c379a000000000000000000000000000000000000000000000000000000000815260040161145590612b9e565b60405180910390fd5b806004013390806001815401808255809150509060018203906000526020600020016000909192909190916101000a81548173ffffffffffffffffffffffffffffffffffffffff021916908373ffffffffffffffffffffffffffffffffffffffff16021790555050600360003373ffffffffffffffffffffffffffffffffffffffff1673ffffffffffffffffffffffffffffffffffffffff1681526020019081526020016000208590806001815401808255809150509060018203906000526020600020016000909192909190915055503481600601600060018460040180549050038152602001908152602001600020600082825401925050819055503481600801600082825401925050819055503373ffffffffffffffffffffffffffffffffffffffff167f90890809c654f11d6e72a28fa60149770a0d11ec6c92319d6ceb2bb0a4ea1a15826006016000600185600401805490500381526020019081526020016000205483600801546040516115d9929190612c6a565b60405180910390a261177a565b600060018111156115f357fe5b8460018111156115ff57fe5b141561177957600073ffffffffffffffffffffffffffffffffffffffff166005868154811061162a57fe5b906000526020600020906009020160030160009054906101000a900473ffffffffffffffffffffffffffffffffffffffff1673ffffffffffffffffffffffffffffffffffffffff16146116b2576040517f08c379a00000000000000000000000000000000000000000000000000000000081526004016116a990612b7e565b60405180910390fd5b33600586815481106116c057fe5b906000526020600020906009020160030160006101000a81548173ffffffffffffffffffffffffffffffffffffffff021916908373ffffffffffffffffffffffffffffffffffffffff160217905550600260003373ffffffffffffffffffffffffffffffffffffffff1673ffffffffffffffffffffffffffffffffffffffff1681526020019081526020016000208590806001815401808255809150509060018203906000526020600020016000909192909190915055505b5b5050505050565b60006005828154811061179057fe5b906000526020600020906009020160030160009054906101000a900473ffffffffffffffffffffffffffffffffffffffff169050919050565b60046020528060005260406000206000915090505481565b6060600160008373ffffffffffffffffffffffffffffffffffffffff1673ffffffffffffffffffffffffffffffffffffffff1681526020019081526020016000208054600181600116156101000203166002900480601f0160208091040260200160405190810160405280929190818152602001828054600181600116156101000203166002900480156118b65780601f1061188b576101008083540402835291602001916118b6565b820191906000526020600020905b81548152906001019060200180831161189957829003601f168201915b50505050509050919050565b6118ca612258565b6000600583815481106118d957fe5b906000526020600020906009020190506118f1612258565b6040518060e0016040528083600001548152602001836001018054600181600116156101000203166002900480601f01602080910402602001604051908101604052809291908181526020018280546001816001161561010002031660029004801561199e5780601f106119735761010080835404028352916020019161199e565b820191906000526020600020905b81548152906001019060200180831161198157829003601f168201915b50505050508152602001836002018054600181600116156101000203166002900480601f016020809104026020016040519081016040528092919081815260200182805460018160011615610100020316600290048015611a405780601f10611a1557610100808354040283529160200191611a40565b820191906000526020600020905b815481529060010190602001808311611a2357829003601f168201915b505050505081526020018360030160009054906101000a900473ffffffffffffffffffffffffffffffffffffffff1673ffffffffffffffffffffffffffffffffffffffff16815260200183600401805480602002602001604051908101604052809291908181526020018280548015611b0e57602002820191906000526020600020905b8160009054906101000a900473ffffffffffffffffffffffffffffffffffffffff1673ffffffffffffffffffffffffffffffffffffffff1681526020019060010190808311611ac4575b5050505050815260200183600501548152602001836008015481525090508092505050919050565b60008060058381548110611b4657fe5b9060005260206000209060090201905060008160040190503373ffffffffffffffffffffffffffffffffffffffff168260030160009054906101000a900473ffffffffffffffffffffffffffffffffffffffff1673ffffffffffffffffffffffffffffffffffffffff161415611c0c5760008260030160006101000a81548173ffffffffffffffffffffffffffffffffffffffff021916908373ffffffffffffffffffffffffffffffffffffffff160217905550611c078260000154611e82565b611de6565b60008090505b8180549050811015611de4573373ffffffffffffffffffffffffffffffffffffffff16828281548110611c4157fe5b9060005260206000200160009054906101000a900473ffffffffffffffffffffffffffffffffffffffff1673ffffffffffffffffffffffffffffffffffffffff16148015611ce15750600115158360070160003373ffffffffffffffffffffffffffffffffffffffff1673ffffffffffffffffffffffffffffffffffffffff16815260200190815260200160002060009054906101000a900460ff161515145b15611dd75760008360060160008381526020019081526020016000205490503373ffffffffffffffffffffffffffffffffffffffff166108fc829081150290604051600060405180830381858888f19350505050158015611d46573d6000803e3d6000fd5b508084600801600082825403925050819055503373ffffffffffffffffffffffffffffffffffffffff167f73f04af9dcc582a923ec15d3eea990fe34adabfff2879e28d44572e01a54abb6828660080154604051611da5929190612c6a565b60405180910390a2600084600601600084815260200190815260200160002081905550611dd58460000154611f55565b505b8080600101915050611c12565b505b600060058581548110611df557fe5b906000526020600020906009020160070160003373ffffffffffffffffffffffffffffffffffffffff1673ffffffffffffffffffffffffffffffffffffffff16815260200190815260200160002060006101000a81548160ff02191690831515021790555060058481548110611e6757fe5b90600052602060002090600902016000015492505050919050565b6000600260003373ffffffffffffffffffffffffffffffffffffffff1673ffffffffffffffffffffffffffffffffffffffff168152602001908152602001600020905060008090505b8180549050811015611f505782828281548110611ee457fe5b90600052602060002001541415611f435781600183805490500381548110611f0857fe5b9060005260206000200154828281548110611f1f57fe5b906000526020600020018190555081805480919060019003611f4191906122ab565b505b8080600101915050611ecb565b505050565b6000600360003373ffffffffffffffffffffffffffffffffffffffff1673ffffffffffffffffffffffffffffffffffffffff168152602001908152602001600020905060008090505b81805490508110156120235782828281548110611fb757fe5b906000526020600020015414156120165781600183805490500381548110611fdb57fe5b9060005260206000200154828281548110611ff257fe5b90600052602060002001819055508180548091906001900361201491906122ab565b505b8080600101915050611f9e565b505050565b828054600181600116156101000203166002900490600052602060002090601f016020900481019282601f1061206957805160ff1916838001178555612097565b82800160010185558215612097579182015b8281111561209657825182559160200191906001019061207b565b5b5090506120a491906122d7565b5090565b6040518060e00160405280600081526020016060815260200160608152602001600073ffffffffffffffffffffffffffffffffffffffff1681526020016060815260200160008152602001600081525090565b6040518060e00160405280600081526020016060815260200160608152602001600073ffffffffffffffffffffffffffffffffffffffff1681526020016060815260200160008152602001600081525090565b828054600181600116156101000203166002900490600052602060002090601f016020900481019282601f1061218f57805160ff19168380011785556121bd565b828001600101855582156121bd579182015b828111156121bc5782518255916020019190600101906121a1565b5b5090506121ca91906122d7565b5090565b828054828255906000526020600020908101928215612247579160200282015b828111156122465782518260006101000a81548173ffffffffffffffffffffffffffffffffffffffff021916908373ffffffffffffffffffffffffffffffffffffffff160217905550916020019190600101906121ee565b5b50905061225491906122fc565b5090565b6040518060e00160405280600081526020016060815260200160608152602001600073ffffffffffffffffffffffffffffffffffffffff1681526020016060815260200160008152602001600081525090565b8154818355818111156122d2578183600052602060002091820191016122d191906122d7565b5b505050565b6122f991905b808211156122f55760008160009055506001016122dd565b5090565b90565b61233c91905b8082111561233857600081816101000a81549073ffffffffffffffffffffffffffffffffffffffff021916905550600101612302565b5090565b90565b60008135905061234e81612e7f565b92915050565b60008135905061236381612e96565b92915050565b600082601f83011261237a57600080fd5b813561238d61238882612cc0565b612c93565b915080825260208301602083018583830111156123a957600080fd5b6123b4838284612e2c565b50505092915050565b6000813590506123cc81612ea6565b92915050565b6000602082840312156123e457600080fd5b60006123f28482850161233f565b91505092915050565b6000806040838503121561240e57600080fd5b600061241c8582860161233f565b925050602083013567ffffffffffffffff81111561243957600080fd5b61244585828601612369565b9150509250929050565b60008060006060848603121561246457600080fd5b600084013567ffffffffffffffff81111561247e57600080fd5b61248a86828701612369565b935050602084013567ffffffffffffffff8111156124a757600080fd5b6124b386828701612369565b92505060406124c486828701612354565b9150509250925092565b6000602082840312156124e057600080fd5b60006124ee848285016123bd565b91505092915050565b6000806040838503121561250a57600080fd5b6000612518858286016123bd565b92505060206125298582860161233f565b9150509250929050565b6000806040838503121561254657600080fd5b6000612554858286016123bd565b925050602061256585828601612354565b9150509250929050565b600061257b838361259b565b60208301905092915050565b600061259383836129c3565b905092915050565b6125a481612de4565b82525050565b6125b381612de4565b82525050565b60006125c482612d3c565b6125ce8185612da0565b93506125d983612cfc565b8060005b8381101561260a5781516125f1888261256f565b97506125fc83612d75565b9250506001810190506125dd565b5085935050505092915050565b600061262282612d31565b61262c8185612d8f565b935061263783612cec565b8060005b8381101561266857815161264f888261256f565b975061265a83612d68565b92505060018101905061263b565b5085935050505092915050565b600061268082612d47565b61268a8185612db1565b93508360208202850161269c85612d0c565b8060005b858110156126d857848403895281516126b98582612587565b94506126c483612d82565b925060208a019950506001810190506126a0565b50829750879550505050505092915050565b6126f381612df6565b82525050565b600061270482612d5d565b61270e8185612dd3565b935061271e818560208601612e3b565b61272781612e6e565b840191505092915050565b600061273d82612d52565b6127478185612dc2565b9350612757818560208601612e3b565b61276081612e6e565b840191505092915050565b600061277682612d52565b6127808185612dd3565b9350612790818560208601612e3b565b61279981612e6e565b840191505092915050565b6000815460018116600081146127c157600181146127e75761282b565b607f60028304166127d28187612dd3565b955060ff19831686526020860193505061282b565b600282046127f58187612dd3565b955061280085612d1c565b60005b8281101561282257815481890152600182019150602081019050612803565b80880195505050505b505092915050565b6000612840602083612dd3565b91507f43616e74206a6f696e207468652073616d6520636f75727365207477696365216000830152602082019050919050565b6000612880601a83612dd3565b91507f5468652074656163686572206973206e6f7420656d70747921210000000000006000830152602082019050919050565b60006128c0602383612dd3565b91507f7468652073747564656e7420646f65736e74206861766520656e6f756768206660008301527f65652e00000000000000000000000000000000000000000000000000000000006020830152604082019050919050565b600060e0830160008301516129316000860182612a6d565b50602083015184820360208601526129498282612732565b915050604083015184820360408601526129638282612732565b9150506060830151612978606086018261259b565b50608083015184820360808601526129908282612617565b91505060a08301516129a560a0860182612a6d565b5060c08301516129b860c0860182612a6d565b508091505092915050565b600060e0830160008301516129db6000860182612a6d565b50602083015184820360208601526129f38282612732565b91505060408301518482036040860152612a0d8282612732565b9150506060830151612a22606086018261259b565b5060808301518482036080860152612a3a8282612617565b91505060a0830151612a4f60a0860182612a6d565b5060c0830151612a6260c0860182612a6d565b508091505092915050565b612a7681612e22565b82525050565b612a8581612e22565b82525050565b6000602082019050612aa060008301846125aa565b92915050565b60006020820190508181036000830152612ac081846125b9565b905092915050565b60006020820190508181036000830152612ae28184612675565b905092915050565b6000602082019050612aff60008301846126ea565b92915050565b60006020820190508181036000830152612b1f81846126f9565b905092915050565b60006040820190508181036000830152612b4181856127a4565b90508181036020830152612b5581846127a4565b90509392505050565b60006020820190508181036000830152612b7781612833565b9050919050565b60006020820190508181036000830152612b9781612873565b9050919050565b60006020820190508181036000830152612bb7816128b3565b9050919050565b60006020820190508181036000830152612bd88184612919565b905092915050565b6000602082019050612bf56000830184612a7c565b92915050565b600060c082019050612c106000830189612a7c565b8181036020830152612c22818861276b565b90508181036040830152612c36818761276b565b9050612c4560608301866125aa565b612c526080830185612a7c565b612c5f60a0830184612a7c565b979650505050505050565b6000604082019050612c7f6000830185612a7c565b612c8c6020830184612a7c565b9392505050565b6000604051905081810181811067ffffffffffffffff82111715612cb657600080fd5b8060405250919050565b600067ffffffffffffffff821115612cd757600080fd5b601f19601f8301169050602081019050919050565b6000819050602082019050919050565b6000819050602082019050919050565b6000819050602082019050919050565b60008190508160005260206000209050919050565b600081519050919050565b600081519050919050565b600081519050919050565b600081519050919050565b600081519050919050565b6000602082019050919050565b6000602082019050919050565b6000602082019050919050565b600082825260208201905092915050565b600082825260208201905092915050565b600082825260208201905092915050565b600082825260208201905092915050565b600082825260208201905092915050565b6000612def82612e02565b9050919050565b60008115159050919050565b600073ffffffffffffffffffffffffffffffffffffffff82169050919050565b6000819050919050565b82818337600083830152505050565b60005b83811015612e59578082015181840152602081019050612e3e565b83811115612e68576000848401525b50505050565b6000601f19601f8301169050919050565b612e8881612de4565b8114612e9357600080fd5b50565b60028110612ea357600080fd5b50565b612eaf81612e22565b8114612eba57600080fd5b5056fea365627a7a723158202ac09d0ba2868837b6eccebfba920ce9b8ef62eb4cf9267bde6b4f2f0be1bbb96c6578706572696d656e74616cf564736f6c634300050c0040",
  "source": "pragma solidity ^0.5.2;\npragma experimental ABIEncoderV2;\nimport \"@openzeppelin/contracts/math/SafeMath.sol\";\n\n\ncontract DeCourse {\n    // mapping(address => uint) public balances;\n    address public owner;\n\n    constructor() public{\n        owner = msg.sender;\n    }\n\n\n    enum Role { Teacher,Student  }\n    \n    struct Course{\n        uint id;\n        string title;  \n        string description;\n        address teacher;\n        address[] students;\n        uint tuitionFee; \n        mapping (uint => uint) studentIndexToTuitionFee;\n        mapping(address => bool) addressToJoinState;\n        uint courseBalance;\n    }\n    struct CourseJoinState{\n        uint id;\n        string title;  \n        string description;\n        address teacher;\n        address[] students;\n        uint tuitionFee; \n        uint courseBalance;\n    }\n\n    event CreateCourse(\n        uint256 indexed _courseId, \n        string _description,\n        string _title\n    );\n\n    event Refund(\n        address indexed _student,\n        uint _value,\n        uint _courseRemainBalance\n    );\n    event Deposit(\n        address indexed _student,\n        uint _value, \n        uint _courseRemainBalance\n    );\n\n    mapping(address=>string) addressToName;\n    mapping (address=>uint[]) addressToTeacherCourse; \n    mapping (address=>uint[]) addressToStudentCourse; \n    mapping (address=>uint) public addressToTuitionFee;  \n    Course[]  public courses;\n    \n    modifier haventJoinTheCourse (uint _courseId, Role _role) {\n        if(_role == Role.Student){\n            for(uint i=0; i<addressToStudentCourse[msg.sender].length;i++){\n                uint  courseId  = addressToStudentCourse[msg.sender][i];\n                //the courseId is the same as the courses index.\n                require(courses[courseId].addressToJoinState[msg.sender]  == false ,\"Cant join the same course twice!\");\n            } \n        }else if(_role == Role.Teacher){\n            for(uint i=0; i<addressToTeacherCourse[msg.sender].length;i++){\n                uint  courseId  = addressToTeacherCourse[msg.sender][i];\n                require(courses[courseId].addressToJoinState[msg.sender] == false , \"Cant join the same course twice!\");\n            } \n        }\n        _; \n    }\n    \n    \n    function createCourse (string memory _title, string memory _description, Role _role)  \n        payable\n        public \n        returns (uint) {   \n        \n        address[] memory students ;\n        uint newCourseId = courses.length;\n        // students.push(msg.sender);\n\n        Course memory newCourse = Course({\n            id:newCourseId ,\n            title:_title,\n            description:_description,\n            teacher:address(0),\n            students:students,\n            tuitionFee:1 ether,\n            courseBalance:0\n        });\n        \n        courses.push(newCourse); \n        \n        courses[newCourseId].addressToJoinState[msg.sender] = true; \n\n        if (_role == Role.Student) {\n            require(msg.value >= newCourse.tuitionFee,\"the student doesnt have enough fee.\");\n            //students.length is the student index before push into student array.\n            courses[newCourseId].studentIndexToTuitionFee[students.length] = msg.value;\n            courses[newCourseId].students.push(msg.sender);\n            addressToStudentCourse[msg.sender].push(newCourseId);\n            \n            \n        }else if (_role == Role.Teacher) {\n            courses[newCourseId].teacher = msg.sender; \n            addressToTeacherCourse[msg.sender].push(newCourseId);\n        }\n        emit CreateCourse(newCourseId,courses[newCourseId].title, courses[newCourseId].description) ;\n            \n        return  courses[newCourseId].id;\n        \n    }\n    \n    \n    function joinCourse(uint _courseId  , Role _role) \n        haventJoinTheCourse(_courseId,_role)\n        payable \n        public {\n        Course storage targetCourse = courses[_courseId]; \n        targetCourse.addressToJoinState[msg.sender] = true; \n\n        if (_role == Role.Student) {\n            require(msg.value >= targetCourse.tuitionFee,\"the student doesnt have enough fee.\");\n            targetCourse.students.push(msg.sender);             \n            addressToStudentCourse[msg.sender].push(_courseId);\n            //course fee\n            targetCourse.studentIndexToTuitionFee[targetCourse.students.length-1] += msg.value;\n            targetCourse.courseBalance += msg.value;\n            emit Deposit(\n                msg.sender,\n                targetCourse.studentIndexToTuitionFee[targetCourse.students.length-1],\n                targetCourse.courseBalance);\n\n        }else if(_role == Role.Teacher){\n            require (courses[_courseId].teacher == address(0),\"The teacher is not empty!!\"); \n            courses[_courseId].teacher = msg.sender; \n            addressToTeacherCourse[msg.sender].push(_courseId);\n        }\n\n\n            \n    } \n\n    \n    function leaveCourse(uint _courseId  ) \n        payable \n        public \n        returns(uint) {\n            Course storage targetCourse = courses[_courseId];       \n            address[] storage students  = targetCourse.students;\n            \n                \n            if (targetCourse.teacher==msg.sender){\n                targetCourse.teacher = address(0);\n                removeFromCourseTeacher(targetCourse.id);\n            } else {\n                \n                \n               for (uint i = 0; i<students.length; i++){\n                   if(students[i]==msg.sender && targetCourse.addressToJoinState[msg.sender]==true){\n                       //refund when a student leave the course\n                       uint studentTuitionFee = targetCourse.studentIndexToTuitionFee[i];\n                        msg.sender.transfer(studentTuitionFee);\n\n                        targetCourse.courseBalance -= studentTuitionFee;\n                        emit Refund(msg.sender,studentTuitionFee,targetCourse.courseBalance ); \n                        targetCourse.studentIndexToTuitionFee[i] = 0; \n                        \n                        removeFromCourseStudent(targetCourse.id);\n                   } \n               }\n            }\n            courses[_courseId].addressToJoinState[msg.sender] = false; \n            \n            return courses[_courseId].id;\n    }   \n     \n\n    \n     \n    function removeFromCourseTeacher  (uint _courseId) private {\n        uint[] storage teacherCourse =  addressToTeacherCourse[msg.sender]; \n        for (uint i=0; i<teacherCourse.length;i++){\n            if(teacherCourse[i]==_courseId){\n               teacherCourse[i] = teacherCourse[teacherCourse.length-1];\n               teacherCourse.length--;\n            }\n        }\n    }\n    function removeFromCourseStudent  (uint _courseId) private {\n        uint[] storage studentCourse =  addressToStudentCourse[msg.sender]; \n        for (uint i=0; i<studentCourse.length;i++){\n            if(studentCourse[i]==_courseId){\n               studentCourse[i] = studentCourse[studentCourse.length-1];\n               studentCourse.length--;\n            }\n        }\n    }\n    function getCourseStates() public view returns(CourseJoinState[] memory){\n        CourseJoinState[] memory courseJoinStates = new CourseJoinState[](courses.length); \n        for (uint i=0; i<courses.length; i++){\n            Course storage targetCourse  = courses[i];\n             courseJoinStates[i] =  CourseJoinState({\n                id: targetCourse.id,\n                title: targetCourse.title,\n                description: targetCourse.description,\n                teacher: targetCourse.teacher,\n                students: targetCourse.students,\n                tuitionFee: targetCourse.tuitionFee,\n                courseBalance : targetCourse.courseBalance\n          });\n        }\n        return courseJoinStates;   \n    }\n    function getCourseState(uint _courseId) public view returns(CourseJoinState memory){\n          Course storage targetCourse = courses[_courseId];\n          CourseJoinState memory courseState =  CourseJoinState({\n                id: targetCourse.id,\n                title: targetCourse.title,\n                description: targetCourse.description,\n                teacher: targetCourse.teacher,\n                students: targetCourse.students,\n                tuitionFee: targetCourse.tuitionFee,\n                courseBalance : targetCourse.courseBalance\n          });\n          return courseState ;\n    }\n    \n    function getStudentsByCourseId(uint _courseId) public view returns(address[] memory ){\n        Course storage targetCourse = courses[_courseId] ; \n        uint  studentIndex = 0;\n        address[] memory validStudent =new address[](targetCourse.students.length);\n\n        for(uint i=0; i<targetCourse.students.length; i++){\n            if( targetCourse.addressToJoinState[targetCourse.students[i]] == true){\n                validStudent[studentIndex] = targetCourse.students[i];\n                studentIndex+=1;\n            }\n        }\n        return validStudent;     \n    }\n    \n    function isAddressInCourse(uint _courseId, address _address) public view returns(bool){\n            return courses[_courseId].addressToJoinState[_address];\n    }\n\n    function getTeacher(uint _courseId) public view returns(address ){\n        return courses[_courseId].teacher;     \n    }\n    \n    function withdraw() public {\n        msg.sender.transfer(address(this).balance);\n    }\n    function getOwner() public view returns (address){\n        return owner;\n    }\n    function getAddressName(address _address) public view  returns (string memory){\n        return addressToName[_address];\n    } \n    function setAddressName(address _address, string memory _name) public {\n         addressToName[_address] = _name;  \n    } \n   \n    \n}",
  "sourcePath": "/Users/mujingtsai/BlockChain/decourse/contracts/DeCourse.sol",
  "compiler": {
    "name": "solc",
    "version": "0.5.12+commit.7709ece9.Emscripten.clang"
  },
  "schemaVersion": "3.0.19",
  "updatedAt": "2019-12-06T02:03:38.882Z",
  "devdoc": {
    "methods": {}
  },
  "userdoc": {
    "methods": {}
  }
}