{
  "contractName": "DeCourse",
  "abi": [
    {
      "inputs": [],
      "payable": false,
      "stateMutability": "nonpayable",
      "type": "constructor"
    },
    {
      "anonymous": false,
      "inputs": [
        {
          "indexed": true,
          "internalType": "uint256",
          "name": "_courseId",
          "type": "uint256"
        },
        {
          "indexed": false,
          "internalType": "string",
          "name": "_description",
          "type": "string"
        },
        {
          "indexed": false,
          "internalType": "string",
          "name": "_title",
          "type": "string"
        }
      ],
      "name": "CreateCourse",
      "type": "event"
    },
    {
      "anonymous": false,
      "inputs": [
        {
          "indexed": true,
          "internalType": "address",
          "name": "_student",
          "type": "address"
        },
        {
          "indexed": false,
          "internalType": "uint256",
          "name": "_value",
          "type": "uint256"
        },
        {
          "indexed": false,
          "internalType": "uint256",
          "name": "_courseRemainBalance",
          "type": "uint256"
        }
      ],
      "name": "DepositToTuitionFee",
      "type": "event"
    },
    {
      "anonymous": false,
      "inputs": [
        {
          "indexed": true,
          "internalType": "address",
          "name": "_student",
          "type": "address"
        },
        {
          "indexed": false,
          "internalType": "uint256",
          "name": "_value",
          "type": "uint256"
        },
        {
          "indexed": false,
          "internalType": "uint256",
          "name": "_courseRemainBalance",
          "type": "uint256"
        }
      ],
      "name": "Refund",
      "type": "event"
    },
    {
      "constant": true,
      "inputs": [
        {
          "internalType": "address",
          "name": "",
          "type": "address"
        }
      ],
      "name": "addressToTuitionFee",
      "outputs": [
        {
          "internalType": "uint256",
          "name": "",
          "type": "uint256"
        }
      ],
      "payable": false,
      "stateMutability": "view",
      "type": "function"
    },
    {
      "constant": true,
      "inputs": [
        {
          "internalType": "uint256",
          "name": "",
          "type": "uint256"
        }
      ],
      "name": "courses",
      "outputs": [
        {
          "internalType": "uint256",
          "name": "id",
          "type": "uint256"
        },
        {
          "internalType": "string",
          "name": "title",
          "type": "string"
        },
        {
          "internalType": "string",
          "name": "description",
          "type": "string"
        },
        {
          "internalType": "address",
          "name": "teacher",
          "type": "address"
        },
        {
          "internalType": "uint256",
          "name": "tuitionFee",
          "type": "uint256"
        },
        {
          "internalType": "uint256",
          "name": "courseBalance",
          "type": "uint256"
        }
      ],
      "payable": false,
      "stateMutability": "view",
      "type": "function"
    },
    {
      "constant": true,
      "inputs": [],
      "name": "owner",
      "outputs": [
        {
          "internalType": "address",
          "name": "",
          "type": "address"
        }
      ],
      "payable": false,
      "stateMutability": "view",
      "type": "function"
    },
    {
      "constant": false,
      "inputs": [
        {
          "internalType": "string",
          "name": "_title",
          "type": "string"
        },
        {
          "internalType": "string",
          "name": "_description",
          "type": "string"
        },
        {
          "internalType": "enum DeCourse.Role",
          "name": "_role",
          "type": "uint8"
        }
      ],
      "name": "createCourse",
      "outputs": [
        {
          "components": [
            {
              "internalType": "uint256",
              "name": "id",
              "type": "uint256"
            },
            {
              "internalType": "string",
              "name": "title",
              "type": "string"
            },
            {
              "internalType": "string",
              "name": "description",
              "type": "string"
            },
            {
              "internalType": "address",
              "name": "teacher",
              "type": "address"
            },
            {
              "internalType": "address[]",
              "name": "students",
              "type": "address[]"
            },
            {
              "internalType": "uint256",
              "name": "tuitionFee",
              "type": "uint256"
            },
            {
              "internalType": "uint256",
              "name": "courseBalance",
              "type": "uint256"
            }
          ],
          "internalType": "struct DeCourse.Course[]",
          "name": "",
          "type": "tuple[]"
        }
      ],
      "payable": true,
      "stateMutability": "payable",
      "type": "function"
    },
    {
      "constant": false,
      "inputs": [
        {
          "internalType": "uint256",
          "name": "_courseId",
          "type": "uint256"
        },
        {
          "internalType": "enum DeCourse.Role",
          "name": "_role",
          "type": "uint8"
        }
      ],
      "name": "joinCourse",
      "outputs": [],
      "payable": true,
      "stateMutability": "payable",
      "type": "function"
    },
    {
      "constant": false,
      "inputs": [
        {
          "internalType": "uint256",
          "name": "_courseId",
          "type": "uint256"
        }
      ],
      "name": "leaveCourse",
      "outputs": [
        {
          "components": [
            {
              "internalType": "uint256",
              "name": "id",
              "type": "uint256"
            },
            {
              "internalType": "string",
              "name": "title",
              "type": "string"
            },
            {
              "internalType": "string",
              "name": "description",
              "type": "string"
            },
            {
              "internalType": "address",
              "name": "teacher",
              "type": "address"
            },
            {
              "internalType": "address[]",
              "name": "students",
              "type": "address[]"
            },
            {
              "internalType": "uint256",
              "name": "tuitionFee",
              "type": "uint256"
            },
            {
              "internalType": "uint256",
              "name": "courseBalance",
              "type": "uint256"
            }
          ],
          "internalType": "struct DeCourse.Course",
          "name": "",
          "type": "tuple"
        }
      ],
      "payable": true,
      "stateMutability": "payable",
      "type": "function"
    },
    {
      "constant": true,
      "inputs": [],
      "name": "getCourses",
      "outputs": [
        {
          "components": [
            {
              "internalType": "uint256",
              "name": "id",
              "type": "uint256"
            },
            {
              "internalType": "string",
              "name": "title",
              "type": "string"
            },
            {
              "internalType": "string",
              "name": "description",
              "type": "string"
            },
            {
              "internalType": "address",
              "name": "teacher",
              "type": "address"
            },
            {
              "internalType": "address[]",
              "name": "students",
              "type": "address[]"
            },
            {
              "internalType": "uint256",
              "name": "tuitionFee",
              "type": "uint256"
            },
            {
              "internalType": "uint256",
              "name": "courseBalance",
              "type": "uint256"
            }
          ],
          "internalType": "struct DeCourse.Course[]",
          "name": "",
          "type": "tuple[]"
        }
      ],
      "payable": false,
      "stateMutability": "view",
      "type": "function"
    },
    {
      "constant": true,
      "inputs": [
        {
          "internalType": "uint256",
          "name": "_courseid",
          "type": "uint256"
        }
      ],
      "name": "getStudent",
      "outputs": [
        {
          "internalType": "address[]",
          "name": "",
          "type": "address[]"
        }
      ],
      "payable": false,
      "stateMutability": "view",
      "type": "function"
    },
    {
      "constant": true,
      "inputs": [
        {
          "internalType": "uint256",
          "name": "_courseid",
          "type": "uint256"
        }
      ],
      "name": "getTeacher",
      "outputs": [
        {
          "internalType": "address",
          "name": "",
          "type": "address"
        }
      ],
      "payable": false,
      "stateMutability": "view",
      "type": "function"
    },
    {
      "constant": false,
      "inputs": [],
      "name": "withdraw",
      "outputs": [],
      "payable": false,
      "stateMutability": "nonpayable",
      "type": "function"
    },
    {
      "constant": true,
      "inputs": [],
      "name": "getOwner",
      "outputs": [
        {
          "internalType": "address",
          "name": "",
          "type": "address"
        }
      ],
      "payable": false,
      "stateMutability": "view",
      "type": "function"
    }
  ],
  "bytecode": "0x608060405234801561001057600080fd5b50336000806101000a81548173ffffffffffffffffffffffffffffffffffffffff021916908373ffffffffffffffffffffffffffffffffffffffff1602179055506129cf806100606000396000f3fe6080604052600436106100b9576000357c01000000000000000000000000000000000000000000000000000000009004806396f979d21161008157806396f979d214610198578063988c2c55146101da578063b105f01d146101f6578063c6d8354c14610233578063cc12647914610270578063ed072a071461029b576100b9565b80633ccfd60b146100be578063642f9163146100d5578063893d20e8146101125780638a2492bb1461013d5780638da5cb5b1461016d575b600080fd5b3480156100ca57600080fd5b506100d36102cb565b005b3480156100e157600080fd5b506100fc60048036036100f79190810190612075565b61032b565b60405161010991906125c9565b60405180910390f35b34801561011e57600080fd5b506101276103d7565b60405161013491906125ae565b60405180910390f35b61015760048036036101529190810190611ff6565b610400565b60405161016491906125eb565b60405180910390f35b34801561017957600080fd5b50610182610a70565b60405161018f91906125ae565b60405180910390f35b3480156101a457600080fd5b506101bf60048036036101ba9190810190612075565b610a95565b6040516101d1969594939291906126e1565b60405180910390f35b6101f460048036036101ef919081019061209e565b610c2e565b005b34801561020257600080fd5b5061021d60048036036102189190810190612075565b61128d565b60405161022a91906125ae565b60405180910390f35b34801561023f57600080fd5b5061025a60048036036102559190810190611fcd565b6112d5565b60405161026791906126c6565b60405180910390f35b34801561027c57600080fd5b506102856112ed565b60405161029291906125eb565b60405180910390f35b6102b560048036036102b09190810190612075565b611592565b6040516102c291906126a4565b60405180910390f35b3373ffffffffffffffffffffffffffffffffffffffff166108fc3073ffffffffffffffffffffffffffffffffffffffff16319081150290604051600060405180830381858888f19350505050158015610328573d6000803e3d6000fd5b50565b60606005828154811061033a57fe5b90600052602060002090600702016004018054806020026020016040519081016040528092919081815260200182805480156103cb57602002820191906000526020600020905b8160009054906101000a900473ffffffffffffffffffffffffffffffffffffffff1673ffffffffffffffffffffffffffffffffffffffff1681526020019060010190808311610381575b50505050509050919050565b60008060009054906101000a900473ffffffffffffffffffffffffffffffffffffffff16905090565b60608060006005805490509050610415611d1d565b6040518060e00160405280838152602001888152602001878152602001600073ffffffffffffffffffffffffffffffffffffffff168152602001848152602001670de0b6b3a7640000815260200160008152509050600581908060018154018082558091505090600182039060005260206000209060070201600090919290919091506000820151816000015560208201518160010190805190602001906104be929190611d70565b5060408201518160020190805190602001906104db929190611d70565b5060608201518160030160006101000a81548173ffffffffffffffffffffffffffffffffffffffff021916908373ffffffffffffffffffffffffffffffffffffffff160217905550608082015181600401908051906020019061053f929190611df0565b5060a0820151816005015560c08201518160060155505050600180600084815260200190815260200160002060006101000a81548160ff02191690831515021790555060018081111561058e57fe5b85600181111561059a57fe5b141561069057600582815481106105ad57fe5b90600052602060002090600702016004013390806001815401808255809150509060018203906000526020600020016000909192909190916101000a81548173ffffffffffffffffffffffffffffffffffffffff021916908373ffffffffffffffffffffffffffffffffffffffff16021790555050600360003373ffffffffffffffffffffffffffffffffffffffff1673ffffffffffffffffffffffffffffffffffffffff168152602001908152602001600020829080600181540180825580915050906001820390600052602060002001600090919290919091505550610752565b6000600181111561069d57fe5b8560018111156106a957fe5b14156107515733816060019073ffffffffffffffffffffffffffffffffffffffff16908173ffffffffffffffffffffffffffffffffffffffff1681525050600260003373ffffffffffffffffffffffffffffffffffffffff1673ffffffffffffffffffffffffffffffffffffffff1681526020019081526020016000208290806001815401808255809150509060018203906000526020600020016000909192909190915055505b5b817fa6074b4bf1eb8a09002d6af7f6a6bf21af64da2c1a4961d1c8bc14b4e930e2756005848154811061078157fe5b90600052602060002090600702016001016005858154811061079f57fe5b90600052602060002090600702016002016040516107be92919061260d565b60405180910390a26005805480602002602001604051908101604052809291908181526020016000905b82821015610a6057838290600052602060002090600702016040518060e001604052908160008201548152602001600182018054600181600116156101000203166002900480601f0160208091040260200160405190810160405280929190818152602001828054600181600116156101000203166002900480156108ae5780601f10610883576101008083540402835291602001916108ae565b820191906000526020600020905b81548152906001019060200180831161089157829003601f168201915b50505050508152602001600282018054600181600116156101000203166002900480601f0160208091040260200160405190810160405280929190818152602001828054600181600116156101000203166002900480156109505780601f1061092557610100808354040283529160200191610950565b820191906000526020600020905b81548152906001019060200180831161093357829003601f168201915b505050505081526020016003820160009054906101000a900473ffffffffffffffffffffffffffffffffffffffff1673ffffffffffffffffffffffffffffffffffffffff1673ffffffffffffffffffffffffffffffffffffffff16815260200160048201805480602002602001604051908101604052809291908181526020018280548015610a3457602002820191906000526020600020905b8160009054906101000a900473ffffffffffffffffffffffffffffffffffffffff1673ffffffffffffffffffffffffffffffffffffffff16815260200190600101908083116109ea575b5050505050815260200160058201548152602001600682015481525050815260200190600101906107e8565b5050505093505050509392505050565b6000809054906101000a900473ffffffffffffffffffffffffffffffffffffffff1681565b60058181548110610aa257fe5b9060005260206000209060070201600091509050806000015490806001018054600181600116156101000203166002900480601f016020809104026020016040519081016040528092919081815260200182805460018160011615610100020316600290048015610b545780601f10610b2957610100808354040283529160200191610b54565b820191906000526020600020905b815481529060010190602001808311610b3757829003601f168201915b505050505090806002018054600181600116156101000203166002900480601f016020809104026020016040519081016040528092919081815260200182805460018160011615610100020316600290048015610bf25780601f10610bc757610100808354040283529160200191610bf2565b820191906000526020600020905b815481529060010190602001808311610bd557829003601f168201915b5050505050908060030160009054906101000a900473ffffffffffffffffffffffffffffffffffffffff16908060050154908060060154905086565b8181600180811115610c3c57fe5b816001811115610c4857fe5b1415610d6c5760008090505b600360003373ffffffffffffffffffffffffffffffffffffffff1673ffffffffffffffffffffffffffffffffffffffff16815260200190815260200160002080549050811015610d66576000151560016000600360003373ffffffffffffffffffffffffffffffffffffffff1673ffffffffffffffffffffffffffffffffffffffff1681526020019081526020016000208481548110610cf057fe5b9060005260206000200154815260200190815260200160002060009054906101000a900460ff16151514610d59576040517f08c379a0000000000000000000000000000000000000000000000000000000008152600401610d5090612644565b60405180910390fd5b8080600101915050610c54565b50610ea6565b60006001811115610d7957fe5b816001811115610d8557fe5b1415610ea55760008090505b600260003373ffffffffffffffffffffffffffffffffffffffff1673ffffffffffffffffffffffffffffffffffffffff16815260200190815260200160002080549050811015610ea3576000151560016000600260003373ffffffffffffffffffffffffffffffffffffffff1673ffffffffffffffffffffffffffffffffffffffff1681526020019081526020016000208481548110610e2d57fe5b9060005260206000200154815260200190815260200160002060009054906101000a900460ff16151514610e96576040517f08c379a0000000000000000000000000000000000000000000000000000000008152600401610e8d90612644565b60405180910390fd5b8080600101915050610d91565b505b5b600060058581548110610eb557fe5b90600052602060002090600702019050600180811115610ed157fe5b846001811115610edd57fe5b14156110f2578060050154341015610f2a576040517f08c379a0000000000000000000000000000000000000000000000000000000008152600401610f2190612684565b60405180910390fd5b806004013390806001815401808255809150509060018203906000526020600020016000909192909190916101000a81548173ffffffffffffffffffffffffffffffffffffffff021916908373ffffffffffffffffffffffffffffffffffffffff16021790555050600360003373ffffffffffffffffffffffffffffffffffffffff1673ffffffffffffffffffffffffffffffffffffffff16815260200190815260200160002085908060018154018082558091505090600182039060005260206000200160009091929091909150555034600460003373ffffffffffffffffffffffffffffffffffffffff1673ffffffffffffffffffffffffffffffffffffffff168152602001908152602001600020600082825401925050819055503481600601600082825401925050819055503373ffffffffffffffffffffffffffffffffffffffff167ff5d08265a26654dc1619b2610c8d2ba96f5ef0d567deb1f847461b71b8b81127600460003373ffffffffffffffffffffffffffffffffffffffff1673ffffffffffffffffffffffffffffffffffffffff1681526020019081526020016000205483600601546040516110e5929190612750565b60405180910390a2611286565b600060018111156110ff57fe5b84600181111561110b57fe5b141561128557600073ffffffffffffffffffffffffffffffffffffffff166005868154811061113657fe5b906000526020600020906007020160030160009054906101000a900473ffffffffffffffffffffffffffffffffffffffff1673ffffffffffffffffffffffffffffffffffffffff16146111be576040517f08c379a00000000000000000000000000000000000000000000000000000000081526004016111b590612664565b60405180910390fd5b33600586815481106111cc57fe5b906000526020600020906007020160030160006101000a81548173ffffffffffffffffffffffffffffffffffffffff021916908373ffffffffffffffffffffffffffffffffffffffff160217905550600260003373ffffffffffffffffffffffffffffffffffffffff1673ffffffffffffffffffffffffffffffffffffffff1681526020019081526020016000208590806001815401808255809150509060018203906000526020600020016000909192909190915055505b5b5050505050565b60006005828154811061129c57fe5b906000526020600020906007020160030160009054906101000a900473ffffffffffffffffffffffffffffffffffffffff169050919050565b60046020528060005260406000206000915090505481565b60606005805480602002602001604051908101604052809291908181526020016000905b8282101561158957838290600052602060002090600702016040518060e001604052908160008201548152602001600182018054600181600116156101000203166002900480601f0160208091040260200160405190810160405280929190818152602001828054600181600116156101000203166002900480156113d75780601f106113ac576101008083540402835291602001916113d7565b820191906000526020600020905b8154815290600101906020018083116113ba57829003601f168201915b50505050508152602001600282018054600181600116156101000203166002900480601f0160208091040260200160405190810160405280929190818152602001828054600181600116156101000203166002900480156114795780601f1061144e57610100808354040283529160200191611479565b820191906000526020600020905b81548152906001019060200180831161145c57829003601f168201915b505050505081526020016003820160009054906101000a900473ffffffffffffffffffffffffffffffffffffffff1673ffffffffffffffffffffffffffffffffffffffff1673ffffffffffffffffffffffffffffffffffffffff1681526020016004820180548060200260200160405190810160405280929190818152602001828054801561155d57602002820191906000526020600020905b8160009054906101000a900473ffffffffffffffffffffffffffffffffffffffff1673ffffffffffffffffffffffffffffffffffffffff1681526020019060010190808311611513575b505050505081526020016005820154815260200160068201548152505081526020019060010190611311565b50505050905090565b61159a611d1d565b6000600583815481106115a957fe5b9060005260206000209060070201905060008160040190503373ffffffffffffffffffffffffffffffffffffffff168260030160009054906101000a900473ffffffffffffffffffffffffffffffffffffffff1673ffffffffffffffffffffffffffffffffffffffff16141561166f5760008260030160006101000a81548173ffffffffffffffffffffffffffffffffffffffff021916908373ffffffffffffffffffffffffffffffffffffffff16021790555061166a8260000154611b77565b6118f0565b60008090505b81805490508110156118ee573373ffffffffffffffffffffffffffffffffffffffff168282815481106116a457fe5b9060005260206000200160009054906101000a900473ffffffffffffffffffffffffffffffffffffffff1673ffffffffffffffffffffffffffffffffffffffff1614156118e1573373ffffffffffffffffffffffffffffffffffffffff166108fc670de0b6b3a76400009081150290604051600060405180830381858888f19350505050158015611739573d6000803e3d6000fd5b50670de0b6b3a764000083600601600082825403925050819055503373ffffffffffffffffffffffffffffffffffffffff167f73f04af9dcc582a923ec15d3eea990fe34adabfff2879e28d44572e01a54abb6600460003373ffffffffffffffffffffffffffffffffffffffff1673ffffffffffffffffffffffffffffffffffffffff1681526020019081526020016000205485600601546040516117df929190612750565b60405180910390a26000600460003373ffffffffffffffffffffffffffffffffffffffff1673ffffffffffffffffffffffffffffffffffffffff168152602001908152602001600020819055508160018380549050038154811061183f57fe5b9060005260206000200160009054906101000a900473ffffffffffffffffffffffffffffffffffffffff1682828154811061187657fe5b9060005260206000200160006101000a81548173ffffffffffffffffffffffffffffffffffffffff021916908373ffffffffffffffffffffffffffffffffffffffff160217905550818054809190600190036118d29190611e7a565b506118e08360000154611c4a565b5b8080600101915050611675565b505b60006001600086815260200190815260200160002060006101000a81548160ff021916908315150217905550816040518060e001604052908160008201548152602001600182018054600181600116156101000203166002900480601f0160208091040260200160405190810160405280929190818152602001828054600181600116156101000203166002900480156119cb5780601f106119a0576101008083540402835291602001916119cb565b820191906000526020600020905b8154815290600101906020018083116119ae57829003601f168201915b50505050508152602001600282018054600181600116156101000203166002900480601f016020809104026020016040519081016040528092919081815260200182805460018160011615610100020316600290048015611a6d5780601f10611a4257610100808354040283529160200191611a6d565b820191906000526020600020905b815481529060010190602001808311611a5057829003601f168201915b505050505081526020016003820160009054906101000a900473ffffffffffffffffffffffffffffffffffffffff1673ffffffffffffffffffffffffffffffffffffffff1673ffffffffffffffffffffffffffffffffffffffff16815260200160048201805480602002602001604051908101604052809291908181526020018280548015611b5157602002820191906000526020600020905b8160009054906101000a900473ffffffffffffffffffffffffffffffffffffffff1673ffffffffffffffffffffffffffffffffffffffff1681526020019060010190808311611b07575b505050505081526020016005820154815260200160068201548152505092505050919050565b6000600260003373ffffffffffffffffffffffffffffffffffffffff1673ffffffffffffffffffffffffffffffffffffffff168152602001908152602001600020905060008090505b8180549050811015611c455782828281548110611bd957fe5b90600052602060002001541415611c385781600183805490500381548110611bfd57fe5b9060005260206000200154828281548110611c1457fe5b906000526020600020018190555081805480919060019003611c369190611ea6565b505b8080600101915050611bc0565b505050565b6000600360003373ffffffffffffffffffffffffffffffffffffffff1673ffffffffffffffffffffffffffffffffffffffff168152602001908152602001600020905060008090505b8180549050811015611d185782828281548110611cac57fe5b90600052602060002001541415611d0b5781600183805490500381548110611cd057fe5b9060005260206000200154828281548110611ce757fe5b906000526020600020018190555081805480919060019003611d099190611ea6565b505b8080600101915050611c93565b505050565b6040518060e00160405280600081526020016060815260200160608152602001600073ffffffffffffffffffffffffffffffffffffffff1681526020016060815260200160008152602001600081525090565b828054600181600116156101000203166002900490600052602060002090601f016020900481019282601f10611db157805160ff1916838001178555611ddf565b82800160010185558215611ddf579182015b82811115611dde578251825591602001919060010190611dc3565b5b509050611dec9190611ed2565b5090565b828054828255906000526020600020908101928215611e69579160200282015b82811115611e685782518260006101000a81548173ffffffffffffffffffffffffffffffffffffffff021916908373ffffffffffffffffffffffffffffffffffffffff16021790555091602001919060010190611e10565b5b509050611e769190611ef7565b5090565b815481835581811115611ea157818360005260206000209182019101611ea09190611ed2565b5b505050565b815481835581811115611ecd57818360005260206000209182019101611ecc9190611ed2565b5b505050565b611ef491905b80821115611ef0576000816000905550600101611ed8565b5090565b90565b611f3791905b80821115611f3357600081816101000a81549073ffffffffffffffffffffffffffffffffffffffff021916905550600101611efd565b5090565b90565b600081359050611f498161294e565b92915050565b600081359050611f5e81612965565b92915050565b600082601f830112611f7557600080fd5b8135611f88611f83826127a6565b612779565b91508082526020830160208301858383011115611fa457600080fd5b611faf8382846128fb565b50505092915050565b600081359050611fc781612975565b92915050565b600060208284031215611fdf57600080fd5b6000611fed84828501611f3a565b91505092915050565b60008060006060848603121561200b57600080fd5b600084013567ffffffffffffffff81111561202557600080fd5b61203186828701611f64565b935050602084013567ffffffffffffffff81111561204e57600080fd5b61205a86828701611f64565b925050604061206b86828701611f4f565b9150509250925092565b60006020828403121561208757600080fd5b600061209584828501611fb8565b91505092915050565b600080604083850312156120b157600080fd5b60006120bf85828601611fb8565b92505060206120d085828601611f4f565b9150509250929050565b60006120e68383612106565b60208301905092915050565b60006120fe83836124e6565b905092915050565b61210f816128bf565b82525050565b61211e816128bf565b82525050565b600061212f82612822565b612139818561287b565b9350612144836127e2565b8060005b8381101561217557815161215c88826120da565b975061216783612850565b925050600181019050612148565b5085935050505092915050565b600061218d82612817565b612197818561286a565b93506121a2836127d2565b8060005b838110156121d35781516121ba88826120da565b97506121c583612843565b9250506001810190506121a6565b5085935050505092915050565b60006121eb8261282d565b6121f5818561288c565b935083602082028501612207856127f2565b8060005b85811015612243578484038952815161222485826120f2565b945061222f8361285d565b925060208a0199505060018101905061220b565b50829750879550505050505092915050565b600061226082612838565b61226a818561289d565b935061227a81856020860161290a565b6122838161293d565b840191505092915050565b600061229982612838565b6122a381856128ae565b93506122b381856020860161290a565b6122bc8161293d565b840191505092915050565b6000815460018116600081146122e4576001811461230a5761234e565b607f60028304166122f581876128ae565b955060ff19831686526020860193505061234e565b6002820461231881876128ae565b955061232385612802565b60005b8281101561234557815481890152600182019150602081019050612326565b80880195505050505b505092915050565b60006123636020836128ae565b91507f43616e74206a6f696e207468652073616d6520636f75727365207477696365216000830152602082019050919050565b60006123a3601a836128ae565b91507f5468652074656163686572206973206e6f7420656d70747921210000000000006000830152602082019050919050565b60006123e36023836128ae565b91507f7468652073747564656e7420646f65736e74206861766520656e6f756768206660008301527f65652e00000000000000000000000000000000000000000000000000000000006020830152604082019050919050565b600060e0830160008301516124546000860182612590565b506020830151848203602086015261246c8282612255565b915050604083015184820360408601526124868282612255565b915050606083015161249b6060860182612106565b50608083015184820360808601526124b38282612182565b91505060a08301516124c860a0860182612590565b5060c08301516124db60c0860182612590565b508091505092915050565b600060e0830160008301516124fe6000860182612590565b50602083015184820360208601526125168282612255565b915050604083015184820360408601526125308282612255565b91505060608301516125456060860182612106565b506080830151848203608086015261255d8282612182565b91505060a083015161257260a0860182612590565b5060c083015161258560c0860182612590565b508091505092915050565b612599816128f1565b82525050565b6125a8816128f1565b82525050565b60006020820190506125c36000830184612115565b92915050565b600060208201905081810360008301526125e38184612124565b905092915050565b6000602082019050818103600083015261260581846121e0565b905092915050565b6000604082019050818103600083015261262781856122c7565b9050818103602083015261263b81846122c7565b90509392505050565b6000602082019050818103600083015261265d81612356565b9050919050565b6000602082019050818103600083015261267d81612396565b9050919050565b6000602082019050818103600083015261269d816123d6565b9050919050565b600060208201905081810360008301526126be818461243c565b905092915050565b60006020820190506126db600083018461259f565b92915050565b600060c0820190506126f6600083018961259f565b8181036020830152612708818861228e565b9050818103604083015261271c818761228e565b905061272b6060830186612115565b612738608083018561259f565b61274560a083018461259f565b979650505050505050565b6000604082019050612765600083018561259f565b612772602083018461259f565b9392505050565b6000604051905081810181811067ffffffffffffffff8211171561279c57600080fd5b8060405250919050565b600067ffffffffffffffff8211156127bd57600080fd5b601f19601f8301169050602081019050919050565b6000819050602082019050919050565b6000819050602082019050919050565b6000819050602082019050919050565b60008190508160005260206000209050919050565b600081519050919050565b600081519050919050565b600081519050919050565b600081519050919050565b6000602082019050919050565b6000602082019050919050565b6000602082019050919050565b600082825260208201905092915050565b600082825260208201905092915050565b600082825260208201905092915050565b600082825260208201905092915050565b600082825260208201905092915050565b60006128ca826128d1565b9050919050565b600073ffffffffffffffffffffffffffffffffffffffff82169050919050565b6000819050919050565b82818337600083830152505050565b60005b8381101561292857808201518184015260208101905061290d565b83811115612937576000848401525b50505050565b6000601f19601f8301169050919050565b612957816128bf565b811461296257600080fd5b50565b6002811061297257600080fd5b50565b61297e816128f1565b811461298957600080fd5b5056fea365627a7a723158202e95a43027183c9bb27335939a59eff8dde2f688f38359a997830f47d1c411796c6578706572696d656e74616cf564736f6c634300050c0040",
  "source": "pragma solidity ^0.5.2;\npragma experimental ABIEncoderV2;\nimport \"@openzeppelin/contracts/math/SafeMath.sol\";\n\n\ncontract DeCourse {\n    // mapping(address => uint) public balances;\n    address public owner;\n\n    constructor() public{\n        owner = msg.sender;\n    }\n\n\n    enum Role { Teacher,Student  }\n \n    struct Course{\n        uint id;\n        string title;  \n        string description;\n        address teacher;\n        address[] students;\n        uint tuitionFee; \n        uint courseBalance;\n    }\n\n    event CreateCourse(\n        uint256 indexed _courseId, \n        string _description,\n        string _title\n    );\n\n    event Refund(\n        address indexed _student,\n        uint _value,\n        uint _courseRemainBalance\n    );\n    event DepositToTuitionFee(\n        address indexed _student,\n        uint _value, \n        uint _courseRemainBalance\n    );\n\n    mapping (uint => bool) courseToJoinState;\n    mapping (address=>uint[]) addressToTeacherCourse; \n    mapping (address=>uint[]) addressToStudentCourse; \n    mapping (address=>uint) public addressToTuitionFee;  \n    Course[]  public courses;\n    \n    modifier haventJoinTheCourse (uint _courseId, Role _role) {\n        if(_role == Role.Student){\n            for(uint i=0; i<addressToStudentCourse[msg.sender].length;i++){\n                require(courseToJoinState[addressToStudentCourse[msg.sender][i]] == false ,\"Cant join the same course twice!\");\n            } \n        }else if(_role == Role.Teacher){\n            for(uint i=0; i<addressToTeacherCourse[msg.sender].length;i++){\n                require(courseToJoinState[addressToTeacherCourse[msg.sender][i]] == false , \"Cant join the same course twice!\");\n            } \n        }\n        _; \n    }\n    \n    \n    function createCourse (string memory _title, string memory _description, Role _role)  \n        payable\n        public \n        returns (Course[] memory) {   \n        \n        address[] memory students ;\n        uint newCourseId = courses.length;\n        // students.push(msg.sender);\n\n        Course memory newCourse = Course({\n            id:newCourseId ,\n            title:_title,\n            description:_description,\n            teacher:address(0),\n            students:students,\n            tuitionFee:1 ether,\n            courseBalance:0\n        });\n        \n        courses.push(newCourse); \n        \n        courseToJoinState[newCourseId] = true; \n\n        if (_role == Role.Student) {\n            // newCourse.students.push(msg.sender);\n            courses[newCourseId].students.push(msg.sender);\n            addressToStudentCourse[msg.sender].push(newCourseId);\n        }else if (_role == Role.Teacher) {\n            newCourse.teacher = msg.sender; \n            addressToTeacherCourse[msg.sender].push(newCourseId);\n        }\n        emit CreateCourse(newCourseId,courses[newCourseId].title, courses[newCourseId].description) ;\n        return  courses;\n        \n    }\n    \n    \n    function joinCourse(uint _courseId  , Role _role) \n        haventJoinTheCourse(_courseId,_role)\n        payable \n        public {\n        Course storage targetCourse = courses[_courseId]; \n        if (_role == Role.Student) {\n            require(msg.value >= targetCourse.tuitionFee,\"the student doesnt have enough fee.\");\n            targetCourse.students.push(msg.sender);             \n            addressToStudentCourse[msg.sender].push(_courseId);\n            \n            addressToTuitionFee[msg.sender] += msg.value;\n            targetCourse.courseBalance += msg.value;\n            emit DepositToTuitionFee(msg.sender,addressToTuitionFee[msg.sender],targetCourse.courseBalance);\n        }else if(_role == Role.Teacher){\n            require (courses[_courseId].teacher == address(0),\"The teacher is not empty!!\"); \n            courses[_courseId].teacher = msg.sender; \n            addressToTeacherCourse[msg.sender].push(_courseId);\n        }\n\n\n            \n    } \n\n    \n    function leaveCourse(uint _courseId  ) \n        payable \n        public \n        returns(Course memory) {\n            Course storage targetCourse = courses[_courseId];       \n            address[] storage students  = targetCourse.students;\n            \n                \n            if (targetCourse.teacher==msg.sender){\n                targetCourse.teacher = address(0);\n                removeFromCourseTeacher(targetCourse.id);\n            } else {\n                \n                \n               for (uint i = 0; i<students.length; i++){\n                   if(students[i]==msg.sender){\n                        msg.sender.transfer(1 ether);\n                        targetCourse.courseBalance -= 1 ether;\n                        emit Refund(msg.sender,addressToTuitionFee[msg.sender],targetCourse.courseBalance ); \n                        addressToTuitionFee[msg.sender] = 0; \n                        \n                       \n                       students[i] = students[students.length-1]; \n                       students.length--;\n                       removeFromCourseStudent(targetCourse.id);\n                   } \n               }\n            }\n\n            courseToJoinState[_courseId] = false; \n            return targetCourse;\n    }   \n     \n\n    \n     \n    function removeFromCourseTeacher  (uint _courseId) private {\n        uint[] storage teacherCourse =  addressToTeacherCourse[msg.sender]; \n        for (uint i=0; i<teacherCourse.length;i++){\n            if(teacherCourse[i]==_courseId){\n               teacherCourse[i] = teacherCourse[teacherCourse.length-1];\n               teacherCourse.length--;\n            }\n        }\n    }\n    function removeFromCourseStudent  (uint _courseId) private {\n        uint[] storage studentCourse =  addressToStudentCourse[msg.sender]; \n        for (uint i=0; i<studentCourse.length;i++){\n            if(studentCourse[i]==_courseId){\n               studentCourse[i] = studentCourse[studentCourse.length-1];\n               studentCourse.length--;\n            }\n        }\n    }\n    function getCourses() public view returns(Course[] memory){\n          return courses ;\n    }\n    \n    function getStudent(uint _courseid) public view returns(address[] memory ){\n        return courses[_courseid].students;     \n    }\n    \n    function getTeacher(uint _courseid) public view returns(address ){\n        return courses[_courseid].teacher;     \n    }\n    \n    function withdraw() public {\n        msg.sender.transfer(address(this).balance);\n    }\n    function getOwner() public view returns (address){\n        return owner;\n    }\n   \n    \n}",
  "sourcePath": "/Users/mujing/BlockChain/DeCourse/contracts/DeCourse.sol",
  "compiler": {
    "name": "solc",
    "version": "0.5.12+commit.7709ece9.Emscripten.clang"
  },
  "schemaVersion": "3.0.19",
  "updatedAt": "2019-12-05T09:01:29.632Z",
  "devdoc": {
    "methods": {}
  },
  "userdoc": {
    "methods": {}
  }
}