{
  "contractName": "DeCourse",
  "abi": [
    {
      "inputs": [],
      "payable": false,
      "stateMutability": "nonpayable",
      "type": "constructor"
    },
    {
      "anonymous": false,
      "inputs": [
        {
          "indexed": true,
          "internalType": "uint256",
          "name": "_courseId",
          "type": "uint256"
        },
        {
          "indexed": false,
          "internalType": "string",
          "name": "_description",
          "type": "string"
        },
        {
          "indexed": false,
          "internalType": "string",
          "name": "_title",
          "type": "string"
        }
      ],
      "name": "CreateCourse",
      "type": "event"
    },
    {
      "anonymous": false,
      "inputs": [
        {
          "indexed": true,
          "internalType": "address",
          "name": "_student",
          "type": "address"
        },
        {
          "indexed": false,
          "internalType": "uint256",
          "name": "_value",
          "type": "uint256"
        },
        {
          "indexed": false,
          "internalType": "uint256",
          "name": "_courseRemainBalance",
          "type": "uint256"
        }
      ],
      "name": "Deposit",
      "type": "event"
    },
    {
      "anonymous": false,
      "inputs": [
        {
          "indexed": true,
          "internalType": "address",
          "name": "_student",
          "type": "address"
        },
        {
          "indexed": false,
          "internalType": "uint256",
          "name": "_value",
          "type": "uint256"
        },
        {
          "indexed": false,
          "internalType": "uint256",
          "name": "_courseRemainBalance",
          "type": "uint256"
        }
      ],
      "name": "Refund",
      "type": "event"
    },
    {
      "constant": true,
      "inputs": [
        {
          "internalType": "address",
          "name": "",
          "type": "address"
        }
      ],
      "name": "addressToTuitionFee",
      "outputs": [
        {
          "internalType": "uint256",
          "name": "",
          "type": "uint256"
        }
      ],
      "payable": false,
      "stateMutability": "view",
      "type": "function"
    },
    {
      "constant": true,
      "inputs": [
        {
          "internalType": "uint256",
          "name": "",
          "type": "uint256"
        }
      ],
      "name": "courses",
      "outputs": [
        {
          "internalType": "uint256",
          "name": "id",
          "type": "uint256"
        },
        {
          "internalType": "string",
          "name": "title",
          "type": "string"
        },
        {
          "internalType": "string",
          "name": "description",
          "type": "string"
        },
        {
          "internalType": "address",
          "name": "teacher",
          "type": "address"
        },
        {
          "internalType": "uint256",
          "name": "tuitionFee",
          "type": "uint256"
        },
        {
          "internalType": "uint256",
          "name": "courseBalance",
          "type": "uint256"
        }
      ],
      "payable": false,
      "stateMutability": "view",
      "type": "function"
    },
    {
      "constant": true,
      "inputs": [],
      "name": "owner",
      "outputs": [
        {
          "internalType": "address",
          "name": "",
          "type": "address"
        }
      ],
      "payable": false,
      "stateMutability": "view",
      "type": "function"
    },
    {
      "constant": false,
      "inputs": [
        {
          "internalType": "string",
          "name": "_title",
          "type": "string"
        },
        {
          "internalType": "string",
          "name": "_description",
          "type": "string"
        },
        {
          "internalType": "enum DeCourse.Role",
          "name": "_role",
          "type": "uint8"
        }
      ],
      "name": "createCourse",
      "outputs": [
        {
          "internalType": "uint256",
          "name": "",
          "type": "uint256"
        }
      ],
      "payable": true,
      "stateMutability": "payable",
      "type": "function"
    },
    {
      "constant": false,
      "inputs": [
        {
          "internalType": "uint256",
          "name": "_courseId",
          "type": "uint256"
        },
        {
          "internalType": "enum DeCourse.Role",
          "name": "_role",
          "type": "uint8"
        }
      ],
      "name": "joinCourse",
      "outputs": [],
      "payable": true,
      "stateMutability": "payable",
      "type": "function"
    },
    {
      "constant": false,
      "inputs": [
        {
          "internalType": "uint256",
          "name": "_courseId",
          "type": "uint256"
        }
      ],
      "name": "leaveCourse",
      "outputs": [
        {
          "internalType": "uint256",
          "name": "",
          "type": "uint256"
        }
      ],
      "payable": true,
      "stateMutability": "payable",
      "type": "function"
    },
    {
      "constant": true,
      "inputs": [],
      "name": "getCourseStates",
      "outputs": [
        {
          "components": [
            {
              "internalType": "uint256",
              "name": "id",
              "type": "uint256"
            },
            {
              "internalType": "string",
              "name": "title",
              "type": "string"
            },
            {
              "internalType": "string",
              "name": "description",
              "type": "string"
            },
            {
              "internalType": "address",
              "name": "teacher",
              "type": "address"
            },
            {
              "internalType": "address[]",
              "name": "students",
              "type": "address[]"
            },
            {
              "internalType": "uint256",
              "name": "tuitionFee",
              "type": "uint256"
            },
            {
              "internalType": "uint256",
              "name": "courseBalance",
              "type": "uint256"
            }
          ],
          "internalType": "struct DeCourse.CourseJoinState[]",
          "name": "",
          "type": "tuple[]"
        }
      ],
      "payable": false,
      "stateMutability": "view",
      "type": "function"
    },
    {
      "constant": true,
      "inputs": [
        {
          "internalType": "uint256",
          "name": "_courseId",
          "type": "uint256"
        }
      ],
      "name": "getCourseState",
      "outputs": [
        {
          "components": [
            {
              "internalType": "uint256",
              "name": "id",
              "type": "uint256"
            },
            {
              "internalType": "string",
              "name": "title",
              "type": "string"
            },
            {
              "internalType": "string",
              "name": "description",
              "type": "string"
            },
            {
              "internalType": "address",
              "name": "teacher",
              "type": "address"
            },
            {
              "internalType": "address[]",
              "name": "students",
              "type": "address[]"
            },
            {
              "internalType": "uint256",
              "name": "tuitionFee",
              "type": "uint256"
            },
            {
              "internalType": "uint256",
              "name": "courseBalance",
              "type": "uint256"
            }
          ],
          "internalType": "struct DeCourse.CourseJoinState",
          "name": "",
          "type": "tuple"
        }
      ],
      "payable": false,
      "stateMutability": "view",
      "type": "function"
    },
    {
      "constant": true,
      "inputs": [
        {
          "internalType": "uint256",
          "name": "_courseId",
          "type": "uint256"
        }
      ],
      "name": "getStudentsByCourseId",
      "outputs": [
        {
          "internalType": "address[]",
          "name": "",
          "type": "address[]"
        }
      ],
      "payable": false,
      "stateMutability": "view",
      "type": "function"
    },
    {
      "constant": true,
      "inputs": [
        {
          "internalType": "uint256",
          "name": "_courseId",
          "type": "uint256"
        },
        {
          "internalType": "address",
          "name": "_address",
          "type": "address"
        }
      ],
      "name": "isAddressInCourse",
      "outputs": [
        {
          "internalType": "bool",
          "name": "",
          "type": "bool"
        }
      ],
      "payable": false,
      "stateMutability": "view",
      "type": "function"
    },
    {
      "constant": true,
      "inputs": [
        {
          "internalType": "uint256",
          "name": "_courseId",
          "type": "uint256"
        }
      ],
      "name": "getTeacher",
      "outputs": [
        {
          "internalType": "address",
          "name": "",
          "type": "address"
        }
      ],
      "payable": false,
      "stateMutability": "view",
      "type": "function"
    },
    {
      "constant": false,
      "inputs": [],
      "name": "withdraw",
      "outputs": [],
      "payable": false,
      "stateMutability": "nonpayable",
      "type": "function"
    },
    {
      "constant": true,
      "inputs": [],
      "name": "getOwner",
      "outputs": [
        {
          "internalType": "address",
          "name": "",
          "type": "address"
        }
      ],
      "payable": false,
      "stateMutability": "view",
      "type": "function"
    }
  ],
  "bytecode": "0x608060405234801561001057600080fd5b50336000806101000a81548173ffffffffffffffffffffffffffffffffffffffff021916908373ffffffffffffffffffffffffffffffffffffffff160217905550612c01806100606000396000f3fe6080604052600436106100df576000357c0100000000000000000000000000000000000000000000000000000000900480638da5cb5b1161009c578063b105f01d11610076578063b105f01d14610284578063c6d8354c146102c1578063e3df00a7146102fe578063ed072a071461033b576100df565b80638da5cb5b146101fb57806396f979d214610226578063988c2c5514610268576100df565b80633ccfd60b146100e45780635e0099a8146100fb5780636c30cf29146101265780637c33a6cc14610163578063893d20e8146101a05780638a2492bb146101cb575b600080fd5b3480156100f057600080fd5b506100f961036b565b005b34801561010757600080fd5b506101106103cb565b60405161011d91906127f6565b60405180910390f35b34801561013257600080fd5b5061014d60048036036101489190810190612235565b6106a8565b60405161015a91906127d4565b60405180910390f35b34801561016f57600080fd5b5061018a6004803603610185919081019061225e565b610852565b6040516101979190612818565b60405180910390f35b3480156101ac57600080fd5b506101b56108c5565b6040516101c291906127b9565b60405180910390f35b6101e560048036036101e091908101906121b6565b6108ee565b6040516101f291906128ec565b60405180910390f35b34801561020757600080fd5b50610210610dca565b60405161021d91906127b9565b60405180910390f35b34801561023257600080fd5b5061024d60048036036102489190810190612235565b610def565b60405161025f96959493929190612907565b60405180910390f35b610282600480360361027d919081019061229a565b610f88565b005b34801561029057600080fd5b506102ab60048036036102a69190810190612235565b61169d565b6040516102b891906127b9565b60405180910390f35b3480156102cd57600080fd5b506102e860048036036102e3919081019061218d565b6116e5565b6040516102f591906128ec565b60405180910390f35b34801561030a57600080fd5b5061032560048036036103209190810190612235565b6116fd565b60405161033291906128ca565b60405180910390f35b61035560048036036103509190810190612235565b611971565b60405161036291906128ec565b60405180910390f35b3373ffffffffffffffffffffffffffffffffffffffff166108fc3073ffffffffffffffffffffffffffffffffffffffff16319081150290604051600060405180830381858888f193505050501580156103c8573d6000803e3d6000fd5b50565b60608060048054905060405190808252806020026020018201604052801561040d57816020015b6103fa611e63565b8152602001906001900390816103f25790505b50905060008090505b6004805490508110156106a05760006004828154811061043257fe5b906000526020600020906009020190506040518060e0016040528082600001548152602001826001018054600181600116156101000203166002900480601f0160208091040260200160405190810160405280929190818152602001828054600181600116156101000203166002900480156104ef5780601f106104c4576101008083540402835291602001916104ef565b820191906000526020600020905b8154815290600101906020018083116104d257829003601f168201915b50505050508152602001826002018054600181600116156101000203166002900480601f0160208091040260200160405190810160405280929190818152602001828054600181600116156101000203166002900480156105915780601f1061056657610100808354040283529160200191610591565b820191906000526020600020905b81548152906001019060200180831161057457829003601f168201915b505050505081526020018260030160009054906101000a900473ffffffffffffffffffffffffffffffffffffffff1673ffffffffffffffffffffffffffffffffffffffff1681526020018260040180548060200260200160405190810160405280929190818152602001828054801561065f57602002820191906000526020600020905b8160009054906101000a900473ffffffffffffffffffffffffffffffffffffffff1673ffffffffffffffffffffffffffffffffffffffff1681526020019060010190808311610615575b5050505050815260200182600501548152602001826008015481525083838151811061068757fe5b6020026020010181905250508080600101915050610416565b508091505090565b60606000600483815481106106b957fe5b906000526020600020906009020190506000809050606082600401805490506040519080825280602002602001820160405280156107065781602001602082028038833980820191505090505b50905060008090505b8360040180549050811015610846576001151584600701600086600401848154811061073757fe5b9060005260206000200160009054906101000a900473ffffffffffffffffffffffffffffffffffffffff1673ffffffffffffffffffffffffffffffffffffffff1673ffffffffffffffffffffffffffffffffffffffff16815260200190815260200160002060009054906101000a900460ff1615151415610839578360040181815481106107c157fe5b9060005260206000200160009054906101000a900473ffffffffffffffffffffffffffffffffffffffff168284815181106107f857fe5b602002602001019073ffffffffffffffffffffffffffffffffffffffff16908173ffffffffffffffffffffffffffffffffffffffff16815250506001830192505b808060010191505061070f565b50809350505050919050565b60006004838154811061086157fe5b906000526020600020906009020160070160008373ffffffffffffffffffffffffffffffffffffffff1673ffffffffffffffffffffffffffffffffffffffff16815260200190815260200160002060009054906101000a900460ff16905092915050565b60008060009054906101000a900473ffffffffffffffffffffffffffffffffffffffff16905090565b6000606060006004805490509050610904611eb6565b6040518060e00160405280838152602001888152602001878152602001600073ffffffffffffffffffffffffffffffffffffffff168152602001848152602001670de0b6b3a7640000815260200160008152509050600481908060018154018082558091505090600182039060005260206000209060090201600090919290919091506000820151816000015560208201518160010190805190602001906109ad929190611f09565b5060408201518160020190805190602001906109ca929190611f09565b5060608201518160030160006101000a81548173ffffffffffffffffffffffffffffffffffffffff021916908373ffffffffffffffffffffffffffffffffffffffff1602179055506080820151816004019080519060200190610a2e929190611f89565b5060a0820151816005015560c08201518160080155505050600160048381548110610a5557fe5b906000526020600020906009020160070160003373ffffffffffffffffffffffffffffffffffffffff1673ffffffffffffffffffffffffffffffffffffffff16815260200190815260200160002060006101000a81548160ff021916908315150217905550600180811115610ac657fe5b856001811115610ad257fe5b1415610c44578060a00151341015610b1f576040517f08c379a0000000000000000000000000000000000000000000000000000000008152600401610b16906128aa565b60405180910390fd5b3460048381548110610b2d57fe5b90600052602060002090600902016006016000855181526020019081526020016000208190555060048281548110610b6157fe5b90600052602060002090600902016004013390806001815401808255809150509060018203906000526020600020016000909192909190916101000a81548173ffffffffffffffffffffffffffffffffffffffff021916908373ffffffffffffffffffffffffffffffffffffffff16021790555050600260003373ffffffffffffffffffffffffffffffffffffffff1673ffffffffffffffffffffffffffffffffffffffff168152602001908152602001600020829080600181540180825580915050906001820390600052602060002001600090919290919091505550610d2b565b60006001811115610c5157fe5b856001811115610c5d57fe5b1415610d2a573360048381548110610c7157fe5b906000526020600020906009020160030160006101000a81548173ffffffffffffffffffffffffffffffffffffffff021916908373ffffffffffffffffffffffffffffffffffffffff160217905550600160003373ffffffffffffffffffffffffffffffffffffffff1673ffffffffffffffffffffffffffffffffffffffff1681526020019081526020016000208290806001815401808255809150509060018203906000526020600020016000909192909190915055505b5b817fa6074b4bf1eb8a09002d6af7f6a6bf21af64da2c1a4961d1c8bc14b4e930e27560048481548110610d5a57fe5b906000526020600020906009020160010160048581548110610d7857fe5b9060005260206000209060090201600201604051610d97929190612833565b60405180910390a260048281548110610dac57fe5b90600052602060002090600902016000015493505050509392505050565b6000809054906101000a900473ffffffffffffffffffffffffffffffffffffffff1681565b60048181548110610dfc57fe5b9060005260206000209060090201600091509050806000015490806001018054600181600116156101000203166002900480601f016020809104026020016040519081016040528092919081815260200182805460018160011615610100020316600290048015610eae5780601f10610e8357610100808354040283529160200191610eae565b820191906000526020600020905b815481529060010190602001808311610e9157829003601f168201915b505050505090806002018054600181600116156101000203166002900480601f016020809104026020016040519081016040528092919081815260200182805460018160011615610100020316600290048015610f4c5780601f10610f2157610100808354040283529160200191610f4c565b820191906000526020600020905b815481529060010190602001808311610f2f57829003601f168201915b5050505050908060030160009054906101000a900473ffffffffffffffffffffffffffffffffffffffff16908060050154908060080154905086565b8181600180811115610f9657fe5b816001811115610fa257fe5b14156111145760008090505b600260003373ffffffffffffffffffffffffffffffffffffffff1673ffffffffffffffffffffffffffffffffffffffff1681526020019081526020016000208054905081101561110e576000600260003373ffffffffffffffffffffffffffffffffffffffff1673ffffffffffffffffffffffffffffffffffffffff168152602001908152602001600020828154811061104457fe5b90600052602060002001549050600015156004828154811061106257fe5b906000526020600020906009020160070160003373ffffffffffffffffffffffffffffffffffffffff1673ffffffffffffffffffffffffffffffffffffffff16815260200190815260200160002060009054906101000a900460ff16151514611100576040517f08c379a00000000000000000000000000000000000000000000000000000000081526004016110f79061286a565b60405180910390fd5b508080600101915050610fae565b5061129c565b6000600181111561112157fe5b81600181111561112d57fe5b141561129b5760008090505b600160003373ffffffffffffffffffffffffffffffffffffffff1673ffffffffffffffffffffffffffffffffffffffff16815260200190815260200160002080549050811015611299576000600160003373ffffffffffffffffffffffffffffffffffffffff1673ffffffffffffffffffffffffffffffffffffffff16815260200190815260200160002082815481106111cf57fe5b9060005260206000200154905060001515600482815481106111ed57fe5b906000526020600020906009020160070160003373ffffffffffffffffffffffffffffffffffffffff1673ffffffffffffffffffffffffffffffffffffffff16815260200190815260200160002060009054906101000a900460ff1615151461128b576040517f08c379a00000000000000000000000000000000000000000000000000000000081526004016112829061286a565b60405180910390fd5b508080600101915050611139565b505b5b6000600485815481106112ab57fe5b9060005260206000209060090201905060018160070160003373ffffffffffffffffffffffffffffffffffffffff1673ffffffffffffffffffffffffffffffffffffffff16815260200190815260200160002060006101000a81548160ff02191690831515021790555060018081111561132157fe5b84600181111561132d57fe5b141561150257806005015434101561137a576040517f08c379a0000000000000000000000000000000000000000000000000000000008152600401611371906128aa565b60405180910390fd5b806004013390806001815401808255809150509060018203906000526020600020016000909192909190916101000a81548173ffffffffffffffffffffffffffffffffffffffff021916908373ffffffffffffffffffffffffffffffffffffffff16021790555050600260003373ffffffffffffffffffffffffffffffffffffffff1673ffffffffffffffffffffffffffffffffffffffff1681526020019081526020016000208590806001815401808255809150509060018203906000526020600020016000909192909190915055503481600601600060018460040180549050038152602001908152602001600020600082825401925050819055503481600801600082825401925050819055503373ffffffffffffffffffffffffffffffffffffffff167f90890809c654f11d6e72a28fa60149770a0d11ec6c92319d6ceb2bb0a4ea1a15826006016000600185600401805490500381526020019081526020016000205483600801546040516114f5929190612976565b60405180910390a2611696565b6000600181111561150f57fe5b84600181111561151b57fe5b141561169557600073ffffffffffffffffffffffffffffffffffffffff166004868154811061154657fe5b906000526020600020906009020160030160009054906101000a900473ffffffffffffffffffffffffffffffffffffffff1673ffffffffffffffffffffffffffffffffffffffff16146115ce576040517f08c379a00000000000000000000000000000000000000000000000000000000081526004016115c59061288a565b60405180910390fd5b33600486815481106115dc57fe5b906000526020600020906009020160030160006101000a81548173ffffffffffffffffffffffffffffffffffffffff021916908373ffffffffffffffffffffffffffffffffffffffff160217905550600160003373ffffffffffffffffffffffffffffffffffffffff1673ffffffffffffffffffffffffffffffffffffffff1681526020019081526020016000208590806001815401808255809150509060018203906000526020600020016000909192909190915055505b5b5050505050565b6000600482815481106116ac57fe5b906000526020600020906009020160030160009054906101000a900473ffffffffffffffffffffffffffffffffffffffff169050919050565b60036020528060005260406000206000915090505481565b611705612013565b60006004838154811061171457fe5b9060005260206000209060090201905061172c612013565b6040518060e0016040528083600001548152602001836001018054600181600116156101000203166002900480601f0160208091040260200160405190810160405280929190818152602001828054600181600116156101000203166002900480156117d95780601f106117ae576101008083540402835291602001916117d9565b820191906000526020600020905b8154815290600101906020018083116117bc57829003601f168201915b50505050508152602001836002018054600181600116156101000203166002900480601f01602080910402602001604051908101604052809291908181526020018280546001816001161561010002031660029004801561187b5780601f106118505761010080835404028352916020019161187b565b820191906000526020600020905b81548152906001019060200180831161185e57829003601f168201915b505050505081526020018360030160009054906101000a900473ffffffffffffffffffffffffffffffffffffffff1673ffffffffffffffffffffffffffffffffffffffff1681526020018360040180548060200260200160405190810160405280929190818152602001828054801561194957602002820191906000526020600020905b8160009054906101000a900473ffffffffffffffffffffffffffffffffffffffff1673ffffffffffffffffffffffffffffffffffffffff16815260200190600101908083116118ff575b5050505050815260200183600501548152602001836008015481525090508092505050919050565b6000806004838154811061198157fe5b9060005260206000209060090201905060008160040190503373ffffffffffffffffffffffffffffffffffffffff168260030160009054906101000a900473ffffffffffffffffffffffffffffffffffffffff1673ffffffffffffffffffffffffffffffffffffffff161415611a475760008260030160006101000a81548173ffffffffffffffffffffffffffffffffffffffff021916908373ffffffffffffffffffffffffffffffffffffffff160217905550611a428260000154611cbd565b611c21565b60008090505b8180549050811015611c1f573373ffffffffffffffffffffffffffffffffffffffff16828281548110611a7c57fe5b9060005260206000200160009054906101000a900473ffffffffffffffffffffffffffffffffffffffff1673ffffffffffffffffffffffffffffffffffffffff16148015611b1c5750600115158360070160003373ffffffffffffffffffffffffffffffffffffffff1673ffffffffffffffffffffffffffffffffffffffff16815260200190815260200160002060009054906101000a900460ff161515145b15611c125760008360060160008381526020019081526020016000205490503373ffffffffffffffffffffffffffffffffffffffff166108fc829081150290604051600060405180830381858888f19350505050158015611b81573d6000803e3d6000fd5b508084600801600082825403925050819055503373ffffffffffffffffffffffffffffffffffffffff167f73f04af9dcc582a923ec15d3eea990fe34adabfff2879e28d44572e01a54abb6828660080154604051611be0929190612976565b60405180910390a2600084600601600084815260200190815260200160002081905550611c108460000154611d90565b505b8080600101915050611a4d565b505b600060048581548110611c3057fe5b906000526020600020906009020160070160003373ffffffffffffffffffffffffffffffffffffffff1673ffffffffffffffffffffffffffffffffffffffff16815260200190815260200160002060006101000a81548160ff02191690831515021790555060048481548110611ca257fe5b90600052602060002090600902016000015492505050919050565b6000600160003373ffffffffffffffffffffffffffffffffffffffff1673ffffffffffffffffffffffffffffffffffffffff168152602001908152602001600020905060008090505b8180549050811015611d8b5782828281548110611d1f57fe5b90600052602060002001541415611d7e5781600183805490500381548110611d4357fe5b9060005260206000200154828281548110611d5a57fe5b906000526020600020018190555081805480919060019003611d7c9190612066565b505b8080600101915050611d06565b505050565b6000600260003373ffffffffffffffffffffffffffffffffffffffff1673ffffffffffffffffffffffffffffffffffffffff168152602001908152602001600020905060008090505b8180549050811015611e5e5782828281548110611df257fe5b90600052602060002001541415611e515781600183805490500381548110611e1657fe5b9060005260206000200154828281548110611e2d57fe5b906000526020600020018190555081805480919060019003611e4f9190612066565b505b8080600101915050611dd9565b505050565b6040518060e00160405280600081526020016060815260200160608152602001600073ffffffffffffffffffffffffffffffffffffffff1681526020016060815260200160008152602001600081525090565b6040518060e00160405280600081526020016060815260200160608152602001600073ffffffffffffffffffffffffffffffffffffffff1681526020016060815260200160008152602001600081525090565b828054600181600116156101000203166002900490600052602060002090601f016020900481019282601f10611f4a57805160ff1916838001178555611f78565b82800160010185558215611f78579182015b82811115611f77578251825591602001919060010190611f5c565b5b509050611f859190612092565b5090565b828054828255906000526020600020908101928215612002579160200282015b828111156120015782518260006101000a81548173ffffffffffffffffffffffffffffffffffffffff021916908373ffffffffffffffffffffffffffffffffffffffff16021790555091602001919060010190611fa9565b5b50905061200f91906120b7565b5090565b6040518060e00160405280600081526020016060815260200160608152602001600073ffffffffffffffffffffffffffffffffffffffff1681526020016060815260200160008152602001600081525090565b81548183558181111561208d5781836000526020600020918201910161208c9190612092565b5b505050565b6120b491905b808211156120b0576000816000905550600101612098565b5090565b90565b6120f791905b808211156120f357600081816101000a81549073ffffffffffffffffffffffffffffffffffffffff0219169055506001016120bd565b5090565b90565b60008135905061210981612b80565b92915050565b60008135905061211e81612b97565b92915050565b600082601f83011261213557600080fd5b8135612148612143826129cc565b61299f565b9150808252602083016020830185838301111561216457600080fd5b61216f838284612b2d565b50505092915050565b60008135905061218781612ba7565b92915050565b60006020828403121561219f57600080fd5b60006121ad848285016120fa565b91505092915050565b6000806000606084860312156121cb57600080fd5b600084013567ffffffffffffffff8111156121e557600080fd5b6121f186828701612124565b935050602084013567ffffffffffffffff81111561220e57600080fd5b61221a86828701612124565b925050604061222b8682870161210f565b9150509250925092565b60006020828403121561224757600080fd5b600061225584828501612178565b91505092915050565b6000806040838503121561227157600080fd5b600061227f85828601612178565b9250506020612290858286016120fa565b9150509250929050565b600080604083850312156122ad57600080fd5b60006122bb85828601612178565b92505060206122cc8582860161210f565b9150509250929050565b60006122e28383612302565b60208301905092915050565b60006122fa83836126f1565b905092915050565b61230b81612ae5565b82525050565b61231a81612ae5565b82525050565b600061232b82612a48565b6123358185612aa1565b935061234083612a08565b8060005b8381101561237157815161235888826122d6565b975061236383612a76565b925050600181019050612344565b5085935050505092915050565b600061238982612a3d565b6123938185612a90565b935061239e836129f8565b8060005b838110156123cf5781516123b688826122d6565b97506123c183612a69565b9250506001810190506123a2565b5085935050505092915050565b60006123e782612a53565b6123f18185612ab2565b93508360208202850161240385612a18565b8060005b8581101561243f578484038952815161242085826122ee565b945061242b83612a83565b925060208a01995050600181019050612407565b50829750879550505050505092915050565b61245a81612af7565b82525050565b600061246b82612a5e565b6124758185612ac3565b9350612485818560208601612b3c565b61248e81612b6f565b840191505092915050565b60006124a482612a5e565b6124ae8185612ad4565b93506124be818560208601612b3c565b6124c781612b6f565b840191505092915050565b6000815460018116600081146124ef576001811461251557612559565b607f60028304166125008187612ad4565b955060ff198316865260208601935050612559565b600282046125238187612ad4565b955061252e85612a28565b60005b8281101561255057815481890152600182019150602081019050612531565b80880195505050505b505092915050565b600061256e602083612ad4565b91507f43616e74206a6f696e207468652073616d6520636f75727365207477696365216000830152602082019050919050565b60006125ae601a83612ad4565b91507f5468652074656163686572206973206e6f7420656d70747921210000000000006000830152602082019050919050565b60006125ee602383612ad4565b91507f7468652073747564656e7420646f65736e74206861766520656e6f756768206660008301527f65652e00000000000000000000000000000000000000000000000000000000006020830152604082019050919050565b600060e08301600083015161265f600086018261279b565b50602083015184820360208601526126778282612460565b915050604083015184820360408601526126918282612460565b91505060608301516126a66060860182612302565b50608083015184820360808601526126be828261237e565b91505060a08301516126d360a086018261279b565b5060c08301516126e660c086018261279b565b508091505092915050565b600060e083016000830151612709600086018261279b565b50602083015184820360208601526127218282612460565b9150506040830151848203604086015261273b8282612460565b91505060608301516127506060860182612302565b5060808301518482036080860152612768828261237e565b91505060a083015161277d60a086018261279b565b5060c083015161279060c086018261279b565b508091505092915050565b6127a481612b23565b82525050565b6127b381612b23565b82525050565b60006020820190506127ce6000830184612311565b92915050565b600060208201905081810360008301526127ee8184612320565b905092915050565b6000602082019050818103600083015261281081846123dc565b905092915050565b600060208201905061282d6000830184612451565b92915050565b6000604082019050818103600083015261284d81856124d2565b9050818103602083015261286181846124d2565b90509392505050565b6000602082019050818103600083015261288381612561565b9050919050565b600060208201905081810360008301526128a3816125a1565b9050919050565b600060208201905081810360008301526128c3816125e1565b9050919050565b600060208201905081810360008301526128e48184612647565b905092915050565b600060208201905061290160008301846127aa565b92915050565b600060c08201905061291c60008301896127aa565b818103602083015261292e8188612499565b905081810360408301526129428187612499565b90506129516060830186612311565b61295e60808301856127aa565b61296b60a08301846127aa565b979650505050505050565b600060408201905061298b60008301856127aa565b61299860208301846127aa565b9392505050565b6000604051905081810181811067ffffffffffffffff821117156129c257600080fd5b8060405250919050565b600067ffffffffffffffff8211156129e357600080fd5b601f19601f8301169050602081019050919050565b6000819050602082019050919050565b6000819050602082019050919050565b6000819050602082019050919050565b60008190508160005260206000209050919050565b600081519050919050565b600081519050919050565b600081519050919050565b600081519050919050565b6000602082019050919050565b6000602082019050919050565b6000602082019050919050565b600082825260208201905092915050565b600082825260208201905092915050565b600082825260208201905092915050565b600082825260208201905092915050565b600082825260208201905092915050565b6000612af082612b03565b9050919050565b60008115159050919050565b600073ffffffffffffffffffffffffffffffffffffffff82169050919050565b6000819050919050565b82818337600083830152505050565b60005b83811015612b5a578082015181840152602081019050612b3f565b83811115612b69576000848401525b50505050565b6000601f19601f8301169050919050565b612b8981612ae5565b8114612b9457600080fd5b50565b60028110612ba457600080fd5b50565b612bb081612b23565b8114612bbb57600080fd5b5056fea365627a7a72315820c4a1931c98a7e7d923e1dd30d8baafbb2910f6195ff4d8efeec1bb877a33dcd66c6578706572696d656e74616cf564736f6c634300050c0040",
  "source": "pragma solidity ^0.5.2;\npragma experimental ABIEncoderV2;\nimport \"@openzeppelin/contracts/math/SafeMath.sol\";\n\n\ncontract DeCourse {\n    // mapping(address => uint) public balances;\n    address public owner;\n\n    constructor() public{\n        owner = msg.sender;\n    }\n\n\n    enum Role { Teacher,Student  }\n \n    struct Course{\n        uint id;\n        string title;  \n        string description;\n        address teacher;\n        address[] students;\n        uint tuitionFee; \n        mapping (uint => uint) studentIndexToTuitionFee;\n        mapping(address => bool) addressToJoinState;\n        uint courseBalance;\n    }\n    struct CourseJoinState{\n        uint id;\n        string title;  \n        string description;\n        address teacher;\n        address[] students;\n        uint tuitionFee; \n        uint courseBalance;\n    }\n\n    event CreateCourse(\n        uint256 indexed _courseId, \n        string _description,\n        string _title\n    );\n\n    event Refund(\n        address indexed _student,\n        uint _value,\n        uint _courseRemainBalance\n    );\n    event Deposit(\n        address indexed _student,\n        uint _value, \n        uint _courseRemainBalance\n    );\n\n    \n    mapping (address=>uint[]) addressToTeacherCourse; \n    mapping (address=>uint[]) addressToStudentCourse; \n    mapping (address=>uint) public addressToTuitionFee;  \n    Course[]  public courses;\n    \n    modifier haventJoinTheCourse (uint _courseId, Role _role) {\n        if(_role == Role.Student){\n            for(uint i=0; i<addressToStudentCourse[msg.sender].length;i++){\n                uint  courseId  = addressToStudentCourse[msg.sender][i];\n                //the courseId is the same as the courses index.\n                require(courses[courseId].addressToJoinState[msg.sender]  == false ,\"Cant join the same course twice!\");\n            } \n        }else if(_role == Role.Teacher){\n            for(uint i=0; i<addressToTeacherCourse[msg.sender].length;i++){\n                uint  courseId  = addressToTeacherCourse[msg.sender][i];\n                require(courses[courseId].addressToJoinState[msg.sender] == false , \"Cant join the same course twice!\");\n            } \n        }\n        _; \n    }\n    \n    \n    function createCourse (string memory _title, string memory _description, Role _role)  \n        payable\n        public \n        returns (uint) {   \n        \n        address[] memory students ;\n        uint newCourseId = courses.length;\n        // students.push(msg.sender);\n\n        Course memory newCourse = Course({\n            id:newCourseId ,\n            title:_title,\n            description:_description,\n            teacher:address(0),\n            students:students,\n            tuitionFee:1 ether,\n            courseBalance:0\n        });\n        \n        courses.push(newCourse); \n        \n        courses[newCourseId].addressToJoinState[msg.sender] = true; \n\n        if (_role == Role.Student) {\n            require(msg.value >= newCourse.tuitionFee,\"the student doesnt have enough fee.\");\n            //students.length is the student index before push into student array.\n            courses[newCourseId].studentIndexToTuitionFee[students.length] = msg.value;\n            courses[newCourseId].students.push(msg.sender);\n            addressToStudentCourse[msg.sender].push(newCourseId);\n            \n            \n        }else if (_role == Role.Teacher) {\n            courses[newCourseId].teacher = msg.sender; \n            addressToTeacherCourse[msg.sender].push(newCourseId);\n        }\n        emit CreateCourse(newCourseId,courses[newCourseId].title, courses[newCourseId].description) ;\n            \n        return  courses[newCourseId].id;\n        \n    }\n    \n    \n    function joinCourse(uint _courseId  , Role _role) \n        haventJoinTheCourse(_courseId,_role)\n        payable \n        public {\n        Course storage targetCourse = courses[_courseId]; \n        targetCourse.addressToJoinState[msg.sender] = true; \n\n        if (_role == Role.Student) {\n            require(msg.value >= targetCourse.tuitionFee,\"the student doesnt have enough fee.\");\n            targetCourse.students.push(msg.sender);             \n            addressToStudentCourse[msg.sender].push(_courseId);\n            //course fee\n            targetCourse.studentIndexToTuitionFee[targetCourse.students.length-1] += msg.value;\n            targetCourse.courseBalance += msg.value;\n            emit Deposit(\n                msg.sender,\n                targetCourse.studentIndexToTuitionFee[targetCourse.students.length-1],\n                targetCourse.courseBalance);\n\n        }else if(_role == Role.Teacher){\n            require (courses[_courseId].teacher == address(0),\"The teacher is not empty!!\"); \n            courses[_courseId].teacher = msg.sender; \n            addressToTeacherCourse[msg.sender].push(_courseId);\n        }\n\n\n            \n    } \n\n    \n    function leaveCourse(uint _courseId  ) \n        payable \n        public \n        returns(uint) {\n            Course storage targetCourse = courses[_courseId];       \n            address[] storage students  = targetCourse.students;\n            \n                \n            if (targetCourse.teacher==msg.sender){\n                targetCourse.teacher = address(0);\n                removeFromCourseTeacher(targetCourse.id);\n            } else {\n                \n                \n               for (uint i = 0; i<students.length; i++){\n                   if(students[i]==msg.sender && targetCourse.addressToJoinState[msg.sender]==true){\n                       //refund when a student leave the course\n                       uint studentTuitionFee = targetCourse.studentIndexToTuitionFee[i];\n                        msg.sender.transfer(studentTuitionFee);\n\n                        targetCourse.courseBalance -= studentTuitionFee;\n                        emit Refund(msg.sender,studentTuitionFee,targetCourse.courseBalance ); \n                        targetCourse.studentIndexToTuitionFee[i] = 0; \n                        \n                        removeFromCourseStudent(targetCourse.id);\n                   } \n               }\n            }\n            courses[_courseId].addressToJoinState[msg.sender] = false; \n            \n            return courses[_courseId].id;\n    }   \n     \n\n    \n     \n    function removeFromCourseTeacher  (uint _courseId) private {\n        uint[] storage teacherCourse =  addressToTeacherCourse[msg.sender]; \n        for (uint i=0; i<teacherCourse.length;i++){\n            if(teacherCourse[i]==_courseId){\n               teacherCourse[i] = teacherCourse[teacherCourse.length-1];\n               teacherCourse.length--;\n            }\n        }\n    }\n    function removeFromCourseStudent  (uint _courseId) private {\n        uint[] storage studentCourse =  addressToStudentCourse[msg.sender]; \n        for (uint i=0; i<studentCourse.length;i++){\n            if(studentCourse[i]==_courseId){\n               studentCourse[i] = studentCourse[studentCourse.length-1];\n               studentCourse.length--;\n            }\n        }\n    }\n    function getCourseStates() public view returns(CourseJoinState[] memory){\n        CourseJoinState[] memory courseJoinStates = new CourseJoinState[](courses.length); \n        for (uint i=0; i<courses.length; i++){\n            Course storage targetCourse  = courses[i];\n             courseJoinStates[i] =  CourseJoinState({\n                id: targetCourse.id,\n                title: targetCourse.title,\n                description: targetCourse.description,\n                teacher: targetCourse.teacher,\n                students: targetCourse.students,\n                tuitionFee: targetCourse.tuitionFee,\n                courseBalance : targetCourse.courseBalance\n          });\n        }\n        return courseJoinStates;   \n    }\n    function getCourseState(uint _courseId) public view returns(CourseJoinState memory){\n          Course storage targetCourse = courses[_courseId];\n          CourseJoinState memory courseState =  CourseJoinState({\n                id: targetCourse.id,\n                title: targetCourse.title,\n                description: targetCourse.description,\n                teacher: targetCourse.teacher,\n                students: targetCourse.students,\n                tuitionFee: targetCourse.tuitionFee,\n                courseBalance : targetCourse.courseBalance\n          });\n          return courseState ;\n    }\n    \n    function getStudentsByCourseId(uint _courseId) public view returns(address[] memory ){\n        Course storage targetCourse = courses[_courseId] ; \n        uint  studentIndex = 0;\n        address[] memory validStudent =new address[](targetCourse.students.length);\n\n        for(uint i=0; i<targetCourse.students.length; i++){\n            if( targetCourse.addressToJoinState[targetCourse.students[i]] == true){\n                validStudent[studentIndex] = targetCourse.students[i];\n                studentIndex+=1;\n            }\n        }\n        return validStudent;     \n    }\n    \n    function isAddressInCourse(uint _courseId, address _address) public view returns(bool){\n            return courses[_courseId].addressToJoinState[_address];\n    }\n\n    function getTeacher(uint _courseId) public view returns(address ){\n        return courses[_courseId].teacher;     \n    }\n    \n    function withdraw() public {\n        msg.sender.transfer(address(this).balance);\n    }\n    function getOwner() public view returns (address){\n        return owner;\n    }\n   \n    \n}",
  "sourcePath": "/Users/mujing/BlockChain/DeCourse/contracts/DeCourse.sol",
  "compiler": {
    "name": "solc",
    "version": "0.5.12+commit.7709ece9.Emscripten.clang"
  },
  "schemaVersion": "3.0.19",
  "updatedAt": "2019-12-06T01:20:28.530Z",
  "devdoc": {
    "methods": {}
  },
  "userdoc": {
    "methods": {}
  }
}