{
    "contractName": "DeCourse",
    "abi": [
        {
            "inputs": [],
            "payable": false,
            "stateMutability": "nonpayable",
            "type": "constructor"
        },
        {
            "anonymous": false,
            "inputs": [
                {
                    "indexed": true,
                    "internalType": "uint256",
                    "name": "_courseId",
                    "type": "uint256"
                },
                {
                    "indexed": true,
                    "internalType": "address",
                    "name": "_participant",
                    "type": "address"
                },
                {
                    "indexed": false,
                    "internalType": "uint256",
                    "name": "_amount",
                    "type": "uint256"
                }
            ],
            "name": "Charge",
            "type": "event"
        },
        {
            "anonymous": false,
            "inputs": [
                {
                    "indexed": true,
                    "internalType": "address",
                    "name": "_student",
                    "type": "address"
                },
                {
                    "indexed": false,
                    "internalType": "uint256",
                    "name": "_value",
                    "type": "uint256"
                },
                {
                    "indexed": false,
                    "internalType": "uint256",
                    "name": "_courseRemainBalance",
                    "type": "uint256"
                }
            ],
            "name": "DepositToTuitionFee",
            "type": "event"
        },
        {
            "anonymous": false,
            "inputs": [
                {
                    "indexed": true,
                    "internalType": "address",
                    "name": "_student",
                    "type": "address"
                },
                {
                    "indexed": false,
                    "internalType": "uint256",
                    "name": "_value",
                    "type": "uint256"
                },
                {
                    "indexed": false,
                    "internalType": "uint256",
                    "name": "_courseRemainBalance",
                    "type": "uint256"
                }
            ],
            "name": "Refund",
            "type": "event"
        },
        {
            "constant": true,
            "inputs": [
                {
                    "internalType": "address",
                    "name": "",
                    "type": "address"
                }
            ],
            "name": "addressToTuitionFee",
            "outputs": [
                {
                    "internalType": "uint256",
                    "name": "",
                    "type": "uint256"
                }
            ],
            "payable": false,
            "stateMutability": "view",
            "type": "function"
        },
        {
            "constant": true,
            "inputs": [
                {
                    "internalType": "uint256",
                    "name": "",
                    "type": "uint256"
                }
            ],
            "name": "courses",
            "outputs": [
                {
                    "internalType": "uint256",
                    "name": "id",
                    "type": "uint256"
                },
                {
                    "internalType": "string",
                    "name": "title",
                    "type": "string"
                },
                {
                    "internalType": "string",
                    "name": "description",
                    "type": "string"
                },
                {
                    "internalType": "address",
                    "name": "teacher",
                    "type": "address"
                },
                {
                    "internalType": "uint256",
                    "name": "tuitionFee",
                    "type": "uint256"
                },
                {
                    "internalType": "uint256",
                    "name": "courseBalance",
                    "type": "uint256"
                }
            ],
            "payable": false,
            "stateMutability": "view",
            "type": "function"
        },
        {
            "constant": true,
            "inputs": [],
            "name": "owner",
            "outputs": [
                {
                    "internalType": "address",
                    "name": "",
                    "type": "address"
                }
            ],
            "payable": false,
            "stateMutability": "view",
            "type": "function"
        },
        {
            "constant": false,
            "inputs": [
                {
                    "internalType": "string",
                    "name": "_title",
                    "type": "string"
                },
                {
                    "internalType": "string",
                    "name": "_description",
                    "type": "string"
                },
                {
                    "internalType": "enum DeCourse.Role",
                    "name": "_role",
                    "type": "uint8"
                }
            ],
            "name": "createCourse",
            "outputs": [
                {
                    "internalType": "address[]",
                    "name": "",
                    "type": "address[]"
                }
            ],
            "payable": true,
            "stateMutability": "payable",
            "type": "function"
        },
        {
            "constant": false,
            "inputs": [
                {
                    "internalType": "uint256",
                    "name": "_courseId",
                    "type": "uint256"
                },
                {
                    "internalType": "enum DeCourse.Role",
                    "name": "_role",
                    "type": "uint8"
                }
            ],
            "name": "joinCourse",
            "outputs": [],
            "payable": true,
            "stateMutability": "payable",
            "type": "function"
        },
        {
            "constant": false,
            "inputs": [
                {
                    "internalType": "uint256",
                    "name": "_courseId",
                    "type": "uint256"
                }
            ],
            "name": "leaveCourse",
            "outputs": [
                {
                    "components": [
                        {
                            "internalType": "uint256",
                            "name": "id",
                            "type": "uint256"
                        },
                        {
                            "internalType": "string",
                            "name": "title",
                            "type": "string"
                        },
                        {
                            "internalType": "string",
                            "name": "description",
                            "type": "string"
                        },
                        {
                            "internalType": "address",
                            "name": "teacher",
                            "type": "address"
                        },
                        {
                            "internalType": "address[]",
                            "name": "students",
                            "type": "address[]"
                        },
                        {
                            "internalType": "uint256",
                            "name": "tuitionFee",
                            "type": "uint256"
                        },
                        {
                            "internalType": "uint256",
                            "name": "courseBalance",
                            "type": "uint256"
                        }
                    ],
                    "internalType": "struct DeCourse.Course",
                    "name": "",
                    "type": "tuple"
                }
            ],
            "payable": true,
            "stateMutability": "payable",
            "type": "function"
        },
        {
            "constant": true,
            "inputs": [],
            "name": "getCourses",
            "outputs": [
                {
                    "components": [
                        {
                            "internalType": "uint256",
                            "name": "id",
                            "type": "uint256"
                        },
                        {
                            "internalType": "string",
                            "name": "title",
                            "type": "string"
                        },
                        {
                            "internalType": "string",
                            "name": "description",
                            "type": "string"
                        },
                        {
                            "internalType": "address",
                            "name": "teacher",
                            "type": "address"
                        },
                        {
                            "internalType": "address[]",
                            "name": "students",
                            "type": "address[]"
                        },
                        {
                            "internalType": "uint256",
                            "name": "tuitionFee",
                            "type": "uint256"
                        },
                        {
                            "internalType": "uint256",
                            "name": "courseBalance",
                            "type": "uint256"
                        }
                    ],
                    "internalType": "struct DeCourse.Course[]",
                    "name": "",
                    "type": "tuple[]"
                }
            ],
            "payable": false,
            "stateMutability": "view",
            "type": "function"
        },
        {
            "constant": true,
            "inputs": [
                {
                    "internalType": "uint256",
                    "name": "_courseid",
                    "type": "uint256"
                }
            ],
            "name": "getStudent",
            "outputs": [
                {
                    "internalType": "address[]",
                    "name": "",
                    "type": "address[]"
                }
            ],
            "payable": false,
            "stateMutability": "view",
            "type": "function"
        },
        {
            "constant": true,
            "inputs": [
                {
                    "internalType": "uint256",
                    "name": "_courseid",
                    "type": "uint256"
                }
            ],
            "name": "getTeacher",
            "outputs": [
                {
                    "internalType": "address",
                    "name": "",
                    "type": "address"
                }
            ],
            "payable": false,
            "stateMutability": "view",
            "type": "function"
        },
        {
            "constant": false,
            "inputs": [],
            "name": "withdraw",
            "outputs": [],
            "payable": false,
            "stateMutability": "nonpayable",
            "type": "function"
        },
        {
            "constant": true,
            "inputs": [],
            "name": "getOwner",
            "outputs": [
                {
                    "internalType": "address",
                    "name": "",
                    "type": "address"
                }
            ],
            "payable": false,
            "stateMutability": "view",
            "type": "function"
        }
    ],
    "bytecode": "0x608060405234801561001057600080fd5b50336000806101000a81548173ffffffffffffffffffffffffffffffffffffffff021916908373ffffffffffffffffffffffffffffffffffffffff160217905550612689806100606000396000f3fe6080604052600436106100b9576000357c01000000000000000000000000000000000000000000000000000000009004806396f979d21161008157806396f979d214610198578063988c2c55146101da578063b105f01d146101f6578063c6d8354c14610233578063cc12647914610270578063ed072a071461029b576100b9565b80633ccfd60b146100be578063642f9163146100d5578063893d20e8146101125780638a2492bb1461013d5780638da5cb5b1461016d575b600080fd5b3480156100ca57600080fd5b506100d36102cb565b005b3480156100e157600080fd5b506100fc60048036036100f79190810190611e0a565b61032b565b60405161010991906122cf565b60405180910390f35b34801561011e57600080fd5b506101276103d7565b60405161013491906122b4565b60405180910390f35b61015760048036036101529190810190611d8b565b610400565b60405161016491906122cf565b60405180910390f35b34801561017957600080fd5b50610182610805565b60405161018f91906122b4565b60405180910390f35b3480156101a457600080fd5b506101bf60048036036101ba9190810190611e0a565b61082a565b6040516101d1969594939291906123b0565b60405180910390f35b6101f460048036036101ef9190810190611e33565b6109c3565b005b34801561020257600080fd5b5061021d60048036036102189190810190611e0a565b611022565b60405161022a91906122b4565b60405180910390f35b34801561023f57600080fd5b5061025a60048036036102559190810190611d62565b61106a565b6040516102679190612395565b60405180910390f35b34801561027c57600080fd5b50610285611082565b60405161029291906122f1565b60405180910390f35b6102b560048036036102b09190810190611e0a565b611327565b6040516102c29190612373565b60405180910390f35b3373ffffffffffffffffffffffffffffffffffffffff166108fc3073ffffffffffffffffffffffffffffffffffffffff16319081150290604051600060405180830381858888f19350505050158015610328573d6000803e3d6000fd5b50565b60606005828154811061033a57fe5b90600052602060002090600702016004018054806020026020016040519081016040528092919081815260200182805480156103cb57602002820191906000526020600020905b8160009054906101000a900473ffffffffffffffffffffffffffffffffffffffff1673ffffffffffffffffffffffffffffffffffffffff1681526020019060010190808311610381575b50505050509050919050565b60008060009054906101000a900473ffffffffffffffffffffffffffffffffffffffff16905090565b60608060006005805490509050610415611ab2565b6040518060e00160405280838152602001888152602001878152602001600073ffffffffffffffffffffffffffffffffffffffff168152602001848152602001670de0b6b3a7640000815260200160008152509050600581908060018154018082558091505090600182039060005260206000209060070201600090919290919091506000820151816000015560208201518160010190805190602001906104be929190611b05565b5060408201518160020190805190602001906104db929190611b05565b5060608201518160030160006101000a81548173ffffffffffffffffffffffffffffffffffffffff021916908373ffffffffffffffffffffffffffffffffffffffff160217905550608082015181600401908051906020019061053f929190611b85565b5060a0820151816005015560c08201518160060155505050600180600084815260200190815260200160002060006101000a81548160ff02191690831515021790555060018081111561058e57fe5b85600181111561059a57fe5b141561069057600582815481106105ad57fe5b90600052602060002090600702016004013390806001815401808255809150509060018203906000526020600020016000909192909190916101000a81548173ffffffffffffffffffffffffffffffffffffffff021916908373ffffffffffffffffffffffffffffffffffffffff16021790555050600360003373ffffffffffffffffffffffffffffffffffffffff1673ffffffffffffffffffffffffffffffffffffffff168152602001908152602001600020829080600181540180825580915050906001820390600052602060002001600090919290919091505550610752565b6000600181111561069d57fe5b8560018111156106a957fe5b14156107515733816060019073ffffffffffffffffffffffffffffffffffffffff16908173ffffffffffffffffffffffffffffffffffffffff1681525050600260003373ffffffffffffffffffffffffffffffffffffffff1673ffffffffffffffffffffffffffffffffffffffff1681526020019081526020016000208290806001815401808255809150509060018203906000526020600020016000909192909190915055505b5b600581600001518154811061076357fe5b90600052602060002090600702016004018054806020026020016040519081016040528092919081815260200182805480156107f457602002820191906000526020600020905b8160009054906101000a900473ffffffffffffffffffffffffffffffffffffffff1673ffffffffffffffffffffffffffffffffffffffff16815260200190600101908083116107aa575b505050505093505050509392505050565b6000809054906101000a900473ffffffffffffffffffffffffffffffffffffffff1681565b6005818154811061083757fe5b9060005260206000209060070201600091509050806000015490806001018054600181600116156101000203166002900480601f0160208091040260200160405190810160405280929190818152602001828054600181600116156101000203166002900480156108e95780601f106108be576101008083540402835291602001916108e9565b820191906000526020600020905b8154815290600101906020018083116108cc57829003601f168201915b505050505090806002018054600181600116156101000203166002900480601f0160208091040260200160405190810160405280929190818152602001828054600181600116156101000203166002900480156109875780601f1061095c57610100808354040283529160200191610987565b820191906000526020600020905b81548152906001019060200180831161096a57829003601f168201915b5050505050908060030160009054906101000a900473ffffffffffffffffffffffffffffffffffffffff16908060050154908060060154905086565b81816001808111156109d157fe5b8160018111156109dd57fe5b1415610b015760008090505b600360003373ffffffffffffffffffffffffffffffffffffffff1673ffffffffffffffffffffffffffffffffffffffff16815260200190815260200160002080549050811015610afb576000151560016000600360003373ffffffffffffffffffffffffffffffffffffffff1673ffffffffffffffffffffffffffffffffffffffff1681526020019081526020016000208481548110610a8557fe5b9060005260206000200154815260200190815260200160002060009054906101000a900460ff16151514610aee576040517f08c379a0000000000000000000000000000000000000000000000000000000008152600401610ae590612313565b60405180910390fd5b80806001019150506109e9565b50610c3b565b60006001811115610b0e57fe5b816001811115610b1a57fe5b1415610c3a5760008090505b600260003373ffffffffffffffffffffffffffffffffffffffff1673ffffffffffffffffffffffffffffffffffffffff16815260200190815260200160002080549050811015610c38576000151560016000600260003373ffffffffffffffffffffffffffffffffffffffff1673ffffffffffffffffffffffffffffffffffffffff1681526020019081526020016000208481548110610bc257fe5b9060005260206000200154815260200190815260200160002060009054906101000a900460ff16151514610c2b576040517f08c379a0000000000000000000000000000000000000000000000000000000008152600401610c2290612313565b60405180910390fd5b8080600101915050610b26565b505b5b600060058581548110610c4a57fe5b90600052602060002090600702019050600180811115610c6657fe5b846001811115610c7257fe5b1415610e87578060050154341015610cbf576040517f08c379a0000000000000000000000000000000000000000000000000000000008152600401610cb690612353565b60405180910390fd5b806004013390806001815401808255809150509060018203906000526020600020016000909192909190916101000a81548173ffffffffffffffffffffffffffffffffffffffff021916908373ffffffffffffffffffffffffffffffffffffffff16021790555050600360003373ffffffffffffffffffffffffffffffffffffffff1673ffffffffffffffffffffffffffffffffffffffff16815260200190815260200160002085908060018154018082558091505090600182039060005260206000200160009091929091909150555034600460003373ffffffffffffffffffffffffffffffffffffffff1673ffffffffffffffffffffffffffffffffffffffff168152602001908152602001600020600082825401925050819055503481600601600082825401925050819055503373ffffffffffffffffffffffffffffffffffffffff167ff5d08265a26654dc1619b2610c8d2ba96f5ef0d567deb1f847461b71b8b81127600460003373ffffffffffffffffffffffffffffffffffffffff1673ffffffffffffffffffffffffffffffffffffffff168152602001908152602001600020548360060154604051610e7a92919061241f565b60405180910390a261101b565b60006001811115610e9457fe5b846001811115610ea057fe5b141561101a57600073ffffffffffffffffffffffffffffffffffffffff1660058681548110610ecb57fe5b906000526020600020906007020160030160009054906101000a900473ffffffffffffffffffffffffffffffffffffffff1673ffffffffffffffffffffffffffffffffffffffff1614610f53576040517f08c379a0000000000000000000000000000000000000000000000000000000008152600401610f4a90612333565b60405180910390fd5b3360058681548110610f6157fe5b906000526020600020906007020160030160006101000a81548173ffffffffffffffffffffffffffffffffffffffff021916908373ffffffffffffffffffffffffffffffffffffffff160217905550600260003373ffffffffffffffffffffffffffffffffffffffff1673ffffffffffffffffffffffffffffffffffffffff1681526020019081526020016000208590806001815401808255809150509060018203906000526020600020016000909192909190915055505b5b5050505050565b60006005828154811061103157fe5b906000526020600020906007020160030160009054906101000a900473ffffffffffffffffffffffffffffffffffffffff169050919050565b60046020528060005260406000206000915090505481565b60606005805480602002602001604051908101604052809291908181526020016000905b8282101561131e57838290600052602060002090600702016040518060e001604052908160008201548152602001600182018054600181600116156101000203166002900480601f01602080910402602001604051908101604052809291908181526020018280546001816001161561010002031660029004801561116c5780601f106111415761010080835404028352916020019161116c565b820191906000526020600020905b81548152906001019060200180831161114f57829003601f168201915b50505050508152602001600282018054600181600116156101000203166002900480601f01602080910402602001604051908101604052809291908181526020018280546001816001161561010002031660029004801561120e5780601f106111e35761010080835404028352916020019161120e565b820191906000526020600020905b8154815290600101906020018083116111f157829003601f168201915b505050505081526020016003820160009054906101000a900473ffffffffffffffffffffffffffffffffffffffff1673ffffffffffffffffffffffffffffffffffffffff1673ffffffffffffffffffffffffffffffffffffffff168152602001600482018054806020026020016040519081016040528092919081815260200182805480156112f257602002820191906000526020600020905b8160009054906101000a900473ffffffffffffffffffffffffffffffffffffffff1673ffffffffffffffffffffffffffffffffffffffff16815260200190600101908083116112a8575b5050505050815260200160058201548152602001600682015481525050815260200190600101906110a6565b50505050905090565b61132f611ab2565b60006005838154811061133e57fe5b9060005260206000209060070201905060008160040190503373ffffffffffffffffffffffffffffffffffffffff168260030160009054906101000a900473ffffffffffffffffffffffffffffffffffffffff1673ffffffffffffffffffffffffffffffffffffffff1614156114045760008260030160006101000a81548173ffffffffffffffffffffffffffffffffffffffff021916908373ffffffffffffffffffffffffffffffffffffffff1602179055506113ff826000015461190c565b611685565b60008090505b8180549050811015611683573373ffffffffffffffffffffffffffffffffffffffff1682828154811061143957fe5b9060005260206000200160009054906101000a900473ffffffffffffffffffffffffffffffffffffffff1673ffffffffffffffffffffffffffffffffffffffff161415611676573373ffffffffffffffffffffffffffffffffffffffff166108fc670de0b6b3a76400009081150290604051600060405180830381858888f193505050501580156114ce573d6000803e3d6000fd5b50670de0b6b3a764000083600601600082825403925050819055503373ffffffffffffffffffffffffffffffffffffffff167f73f04af9dcc582a923ec15d3eea990fe34adabfff2879e28d44572e01a54abb6600460003373ffffffffffffffffffffffffffffffffffffffff1673ffffffffffffffffffffffffffffffffffffffff16815260200190815260200160002054856006015460405161157492919061241f565b60405180910390a26000600460003373ffffffffffffffffffffffffffffffffffffffff1673ffffffffffffffffffffffffffffffffffffffff16815260200190815260200160002081905550816001838054905003815481106115d457fe5b9060005260206000200160009054906101000a900473ffffffffffffffffffffffffffffffffffffffff1682828154811061160b57fe5b9060005260206000200160006101000a81548173ffffffffffffffffffffffffffffffffffffffff021916908373ffffffffffffffffffffffffffffffffffffffff160217905550818054809190600190036116679190611c0f565b5061167583600001546119df565b5b808060010191505061140a565b505b60006001600086815260200190815260200160002060006101000a81548160ff021916908315150217905550816040518060e001604052908160008201548152602001600182018054600181600116156101000203166002900480601f0160208091040260200160405190810160405280929190818152602001828054600181600116156101000203166002900480156117605780601f1061173557610100808354040283529160200191611760565b820191906000526020600020905b81548152906001019060200180831161174357829003601f168201915b50505050508152602001600282018054600181600116156101000203166002900480601f0160208091040260200160405190810160405280929190818152602001828054600181600116156101000203166002900480156118025780601f106117d757610100808354040283529160200191611802565b820191906000526020600020905b8154815290600101906020018083116117e557829003601f168201915b505050505081526020016003820160009054906101000a900473ffffffffffffffffffffffffffffffffffffffff1673ffffffffffffffffffffffffffffffffffffffff1673ffffffffffffffffffffffffffffffffffffffff168152602001600482018054806020026020016040519081016040528092919081815260200182805480156118e657602002820191906000526020600020905b8160009054906101000a900473ffffffffffffffffffffffffffffffffffffffff1673ffffffffffffffffffffffffffffffffffffffff168152602001906001019080831161189c575b505050505081526020016005820154815260200160068201548152505092505050919050565b6000600260003373ffffffffffffffffffffffffffffffffffffffff1673ffffffffffffffffffffffffffffffffffffffff168152602001908152602001600020905060008090505b81805490508110156119da578282828154811061196e57fe5b906000526020600020015414156119cd578160018380549050038154811061199257fe5b90600052602060002001548282815481106119a957fe5b9060005260206000200181905550818054809190600190036119cb9190611c3b565b505b8080600101915050611955565b505050565b6000600360003373ffffffffffffffffffffffffffffffffffffffff1673ffffffffffffffffffffffffffffffffffffffff168152602001908152602001600020905060008090505b8180549050811015611aad5782828281548110611a4157fe5b90600052602060002001541415611aa05781600183805490500381548110611a6557fe5b9060005260206000200154828281548110611a7c57fe5b906000526020600020018190555081805480919060019003611a9e9190611c3b565b505b8080600101915050611a28565b505050565b6040518060e00160405280600081526020016060815260200160608152602001600073ffffffffffffffffffffffffffffffffffffffff1681526020016060815260200160008152602001600081525090565b828054600181600116156101000203166002900490600052602060002090601f016020900481019282601f10611b4657805160ff1916838001178555611b74565b82800160010185558215611b74579182015b82811115611b73578251825591602001919060010190611b58565b5b509050611b819190611c67565b5090565b828054828255906000526020600020908101928215611bfe579160200282015b82811115611bfd5782518260006101000a81548173ffffffffffffffffffffffffffffffffffffffff021916908373ffffffffffffffffffffffffffffffffffffffff16021790555091602001919060010190611ba5565b5b509050611c0b9190611c8c565b5090565b815481835581811115611c3657818360005260206000209182019101611c359190611c67565b5b505050565b815481835581811115611c6257818360005260206000209182019101611c619190611c67565b5b505050565b611c8991905b80821115611c85576000816000905550600101611c6d565b5090565b90565b611ccc91905b80821115611cc857600081816101000a81549073ffffffffffffffffffffffffffffffffffffffff021916905550600101611c92565b5090565b90565b600081359050611cde81612608565b92915050565b600081359050611cf38161261f565b92915050565b600082601f830112611d0a57600080fd5b8135611d1d611d1882612475565b612448565b91508082526020830160208301858383011115611d3957600080fd5b611d448382846125b5565b50505092915050565b600081359050611d5c8161262f565b92915050565b600060208284031215611d7457600080fd5b6000611d8284828501611ccf565b91505092915050565b600080600060608486031215611da057600080fd5b600084013567ffffffffffffffff811115611dba57600080fd5b611dc686828701611cf9565b935050602084013567ffffffffffffffff811115611de357600080fd5b611def86828701611cf9565b9250506040611e0086828701611ce4565b9150509250925092565b600060208284031215611e1c57600080fd5b6000611e2a84828501611d4d565b91505092915050565b60008060408385031215611e4657600080fd5b6000611e5485828601611d4d565b9250506020611e6585828601611ce4565b9150509250929050565b6000611e7b8383611e9b565b60208301905092915050565b6000611e9383836121ec565b905092915050565b611ea481612579565b82525050565b611eb381612579565b82525050565b6000611ec4826124dc565b611ece8185612535565b9350611ed9836124b1565b8060005b83811015611f0a578151611ef18882611e6f565b9750611efc8361250a565b925050600181019050611edd565b5085935050505092915050565b6000611f22826124d1565b611f2c8185612524565b9350611f37836124a1565b8060005b83811015611f68578151611f4f8882611e6f565b9750611f5a836124fd565b925050600181019050611f3b565b5085935050505092915050565b6000611f80826124e7565b611f8a8185612546565b935083602082028501611f9c856124c1565b8060005b85811015611fd85784840389528151611fb98582611e87565b9450611fc483612517565b925060208a01995050600181019050611fa0565b50829750879550505050505092915050565b6000611ff5826124f2565b611fff8185612557565b935061200f8185602086016125c4565b612018816125f7565b840191505092915050565b600061202e826124f2565b6120388185612568565b93506120488185602086016125c4565b612051816125f7565b840191505092915050565b6000612069602083612568565b91507f43616e74206a6f696e207468652073616d6520636f75727365207477696365216000830152602082019050919050565b60006120a9601a83612568565b91507f5468652074656163686572206973206e6f7420656d70747921210000000000006000830152602082019050919050565b60006120e9602383612568565b91507f7468652073747564656e7420646f65736e74206861766520656e6f756768206660008301527f65652e00000000000000000000000000000000000000000000000000000000006020830152604082019050919050565b600060e08301600083015161215a6000860182612296565b50602083015184820360208601526121728282611fea565b9150506040830151848203604086015261218c8282611fea565b91505060608301516121a16060860182611e9b565b50608083015184820360808601526121b98282611f17565b91505060a08301516121ce60a0860182612296565b5060c08301516121e160c0860182612296565b508091505092915050565b600060e0830160008301516122046000860182612296565b506020830151848203602086015261221c8282611fea565b915050604083015184820360408601526122368282611fea565b915050606083015161224b6060860182611e9b565b50608083015184820360808601526122638282611f17565b91505060a083015161227860a0860182612296565b5060c083015161228b60c0860182612296565b508091505092915050565b61229f816125ab565b82525050565b6122ae816125ab565b82525050565b60006020820190506122c96000830184611eaa565b92915050565b600060208201905081810360008301526122e98184611eb9565b905092915050565b6000602082019050818103600083015261230b8184611f75565b905092915050565b6000602082019050818103600083015261232c8161205c565b9050919050565b6000602082019050818103600083015261234c8161209c565b9050919050565b6000602082019050818103600083015261236c816120dc565b9050919050565b6000602082019050818103600083015261238d8184612142565b905092915050565b60006020820190506123aa60008301846122a5565b92915050565b600060c0820190506123c560008301896122a5565b81810360208301526123d78188612023565b905081810360408301526123eb8187612023565b90506123fa6060830186611eaa565b61240760808301856122a5565b61241460a08301846122a5565b979650505050505050565b600060408201905061243460008301856122a5565b61244160208301846122a5565b9392505050565b6000604051905081810181811067ffffffffffffffff8211171561246b57600080fd5b8060405250919050565b600067ffffffffffffffff82111561248c57600080fd5b601f19601f8301169050602081019050919050565b6000819050602082019050919050565b6000819050602082019050919050565b6000819050602082019050919050565b600081519050919050565b600081519050919050565b600081519050919050565b600081519050919050565b6000602082019050919050565b6000602082019050919050565b6000602082019050919050565b600082825260208201905092915050565b600082825260208201905092915050565b600082825260208201905092915050565b600082825260208201905092915050565b600082825260208201905092915050565b60006125848261258b565b9050919050565b600073ffffffffffffffffffffffffffffffffffffffff82169050919050565b6000819050919050565b82818337600083830152505050565b60005b838110156125e25780820151818401526020810190506125c7565b838111156125f1576000848401525b50505050565b6000601f19601f8301169050919050565b61261181612579565b811461261c57600080fd5b50565b6002811061262c57600080fd5b50565b612638816125ab565b811461264357600080fd5b5056fea365627a7a72315820de60a8dc9ba86ed1b5899c3a00de8a833e916ed410b539ae82b91bff6e633a7f6c6578706572696d656e74616cf564736f6c634300050c0040",
    "source": "pragma solidity ^0.5.2;\npragma experimental ABIEncoderV2;\nimport \"@openzeppelin/contracts/math/SafeMath.sol\";\n\n\ncontract DeCourse {\n    // mapping(address => uint) public balances;\n    address public owner;\n\n    constructor() public{\n        owner = msg.sender;\n    }\n\n\n    enum Role { Teacher,Student  }\n \n    struct Course{\n        uint id;\n        string title;  \n        string description;\n        address teacher;\n        address[] students;\n        uint tuitionFee; \n        uint courseBalance;\n    }\n\n    event Charge(\n        uint256 indexed _courseId, \n        address indexed _participant, \n        uint256 _amount);\n\n    event Refund(\n        address indexed _student,\n        uint _value,\n        uint _courseRemainBalance\n    );\n    event DepositToTuitionFee(\n        address indexed _student,\n        uint _value, \n        uint _courseRemainBalance\n    );\n\n    mapping (uint => bool) courseToJoinState;\n    mapping (address=>uint[]) addressToTeacherCourse; \n    mapping (address=>uint[]) addressToStudentCourse; \n    mapping (address=>uint) public addressToTuitionFee;  \n    Course[]  public courses;\n    \n    modifier haventJoinTheCourse (uint _courseId, Role _role) {\n        if(_role == Role.Student){\n            for(uint i=0; i<addressToStudentCourse[msg.sender].length;i++){\n                require(courseToJoinState[addressToStudentCourse[msg.sender][i]] == false ,\"Cant join the same course twice!\");\n            } \n        }else if(_role == Role.Teacher){\n            for(uint i=0; i<addressToTeacherCourse[msg.sender].length;i++){\n                require(courseToJoinState[addressToTeacherCourse[msg.sender][i]] == false , \"Cant join the same course twice!\");\n            } \n        }\n        _; \n    }\n    \n    \n    function createCourse (string memory _title, string memory _description, Role _role)  \n        payable\n        public \n        returns (address[] memory) {   \n        \n        address[] memory students ;\n        uint newCourseId = courses.length;\n        // students.push(msg.sender);\n\n        Course memory newCourse = Course({\n            id:newCourseId ,\n            title:_title,\n            description:_description,\n            teacher:address(0),\n            students:students,\n            tuitionFee:1 ether,\n            courseBalance:0\n        });\n        \n        courses.push(newCourse); \n        \n        courseToJoinState[newCourseId] = true; \n\n        if (_role == Role.Student) {\n            // newCourse.students.push(msg.sender);\n            courses[newCourseId].students.push(msg.sender);\n            addressToStudentCourse[msg.sender].push(newCourseId);\n        }else if (_role == Role.Teacher) {\n            newCourse.teacher = msg.sender; \n            addressToTeacherCourse[msg.sender].push(newCourseId);\n        }\n        \n        return  courses[newCourse.id].students;\n        \n    }\n    \n    \n    function joinCourse(uint _courseId  , Role _role) \n        haventJoinTheCourse(_courseId,_role)\n        payable \n        public {\n        Course storage targetCourse = courses[_courseId]; \n        if (_role == Role.Student) {\n            require(msg.value >= targetCourse.tuitionFee,\"the student doesnt have enough fee.\");\n            targetCourse.students.push(msg.sender);             \n            addressToStudentCourse[msg.sender].push(_courseId);\n            \n            addressToTuitionFee[msg.sender] += msg.value;\n            targetCourse.courseBalance += msg.value;\n            emit DepositToTuitionFee(msg.sender,addressToTuitionFee[msg.sender],targetCourse.courseBalance);\n        }else if(_role == Role.Teacher){\n            require (courses[_courseId].teacher == address(0),\"The teacher is not empty!!\"); \n            courses[_courseId].teacher = msg.sender; \n            addressToTeacherCourse[msg.sender].push(_courseId);\n        }\n\n\n            \n    } \n\n    \n    function leaveCourse(uint _courseId  ) \n        payable \n        public \n        returns(Course memory) {\n            Course storage targetCourse = courses[_courseId];       \n            address[] storage students  = targetCourse.students;\n            \n                \n            if (targetCourse.teacher==msg.sender){\n                targetCourse.teacher = address(0);\n                removeFromCourseTeacher(targetCourse.id);\n            } else {\n                \n                \n               for (uint i = 0; i<students.length; i++){\n                   if(students[i]==msg.sender){\n                        msg.sender.transfer(1 ether);\n                        targetCourse.courseBalance -= 1 ether;\n                        emit Refund(msg.sender,addressToTuitionFee[msg.sender],targetCourse.courseBalance ); \n                        addressToTuitionFee[msg.sender] = 0; \n                        \n                       \n                       students[i] = students[students.length-1]; \n                       students.length--;\n                       removeFromCourseStudent(targetCourse.id);\n                   } \n               }\n            }\n\n            courseToJoinState[_courseId] = false; \n            return targetCourse;\n    }   \n     \n\n    \n     \n    function removeFromCourseTeacher  (uint _courseId) private {\n        uint[] storage teacherCourse =  addressToTeacherCourse[msg.sender]; \n        for (uint i=0; i<teacherCourse.length;i++){\n            if(teacherCourse[i]==_courseId){\n               teacherCourse[i] = teacherCourse[teacherCourse.length-1];\n               teacherCourse.length--;\n            }\n        }\n    }\n    function removeFromCourseStudent  (uint _courseId) private {\n        uint[] storage studentCourse =  addressToStudentCourse[msg.sender]; \n        for (uint i=0; i<studentCourse.length;i++){\n            if(studentCourse[i]==_courseId){\n               studentCourse[i] = studentCourse[studentCourse.length-1];\n               studentCourse.length--;\n            }\n        }\n    }\n    function getCourses() public view returns(Course[] memory){\n          return courses ;\n    }\n    \n    function getStudent(uint _courseid) public view returns(address[] memory ){\n        return courses[_courseid].students;     \n    }\n    \n    function getTeacher(uint _courseid) public view returns(address ){\n        return courses[_courseid].teacher;     \n    }\n    \n    function withdraw() public {\n        msg.sender.transfer(address(this).balance);\n    }\n    function getOwner() public view returns (address){\n        return owner;\n    }\n   \n    \n}",
    "sourcePath": "/Users/mujing/BlockChain/DeCourse/contracts/DeCourse.sol",
    "compiler": {
        "name": "solc",
        "version": "0.5.12+commit.7709ece9.Emscripten.clang"
    },
    "schemaVersion": "3.0.19",
    "updatedAt": "2019-12-04T13:58:28.728Z",
    "networkType": "ethereum",
    "devdoc": {
        "methods": {}
    },
    "userdoc": {
        "methods": {}
    }
}