{
  "contractName": "DeCourse",
  "abi": [
    {
      "inputs": [],
      "payable": false,
      "stateMutability": "nonpayable",
      "type": "constructor"
    },
    {
      "anonymous": false,
      "inputs": [
        {
          "indexed": true,
          "internalType": "uint256",
          "name": "_courseId",
          "type": "uint256"
        },
        {
          "components": [
            {
              "internalType": "uint256",
              "name": "id",
              "type": "uint256"
            },
            {
              "internalType": "string",
              "name": "title",
              "type": "string"
            },
            {
              "internalType": "string",
              "name": "description",
              "type": "string"
            },
            {
              "internalType": "address",
              "name": "teacher",
              "type": "address"
            },
            {
              "internalType": "address[]",
              "name": "students",
              "type": "address[]"
            },
            {
              "internalType": "uint256",
              "name": "tuitionFee",
              "type": "uint256"
            },
            {
              "internalType": "uint256",
              "name": "courseBalance",
              "type": "uint256"
            }
          ],
          "indexed": false,
          "internalType": "struct DeCourse.CourseJoinState",
          "name": "_courseJoinState",
          "type": "tuple"
        }
      ],
      "name": "CreateCourse",
      "type": "event"
    },
    {
      "anonymous": false,
      "inputs": [
        {
          "indexed": true,
          "internalType": "address",
          "name": "_student",
          "type": "address"
        },
        {
          "indexed": false,
          "internalType": "uint256",
          "name": "_value",
          "type": "uint256"
        },
        {
          "indexed": false,
          "internalType": "uint256",
          "name": "_courseRemainBalance",
          "type": "uint256"
        }
      ],
      "name": "Deposit",
      "type": "event"
    },
    {
      "anonymous": false,
      "inputs": [
        {
          "indexed": false,
          "internalType": "address",
          "name": "targetAddress",
          "type": "address"
        }
      ],
      "name": "JoinCourse",
      "type": "event"
    },
    {
      "anonymous": false,
      "inputs": [
        {
          "indexed": true,
          "internalType": "address",
          "name": "_student",
          "type": "address"
        },
        {
          "indexed": false,
          "internalType": "uint256",
          "name": "_value",
          "type": "uint256"
        },
        {
          "indexed": false,
          "internalType": "uint256",
          "name": "_courseRemainBalance",
          "type": "uint256"
        }
      ],
      "name": "Refund",
      "type": "event"
    },
    {
      "anonymous": false,
      "inputs": [
        {
          "indexed": false,
          "internalType": "string",
          "name": "_username",
          "type": "string"
        }
      ],
      "name": "SetName",
      "type": "event"
    },
    {
      "constant": true,
      "inputs": [
        {
          "internalType": "address",
          "name": "",
          "type": "address"
        }
      ],
      "name": "addressToTuitionFee",
      "outputs": [
        {
          "internalType": "uint256",
          "name": "",
          "type": "uint256"
        }
      ],
      "payable": false,
      "stateMutability": "view",
      "type": "function"
    },
    {
      "constant": true,
      "inputs": [
        {
          "internalType": "uint256",
          "name": "",
          "type": "uint256"
        }
      ],
      "name": "courses",
      "outputs": [
        {
          "internalType": "uint256",
          "name": "id",
          "type": "uint256"
        },
        {
          "internalType": "string",
          "name": "title",
          "type": "string"
        },
        {
          "internalType": "string",
          "name": "description",
          "type": "string"
        },
        {
          "internalType": "address",
          "name": "teacher",
          "type": "address"
        },
        {
          "internalType": "uint256",
          "name": "tuitionFee",
          "type": "uint256"
        },
        {
          "internalType": "uint256",
          "name": "courseBalance",
          "type": "uint256"
        }
      ],
      "payable": false,
      "stateMutability": "view",
      "type": "function"
    },
    {
      "constant": true,
      "inputs": [],
      "name": "owner",
      "outputs": [
        {
          "internalType": "address",
          "name": "",
          "type": "address"
        }
      ],
      "payable": false,
      "stateMutability": "view",
      "type": "function"
    },
    {
      "constant": false,
      "inputs": [
        {
          "internalType": "string",
          "name": "_title",
          "type": "string"
        },
        {
          "internalType": "string",
          "name": "_description",
          "type": "string"
        },
        {
          "internalType": "enum DeCourse.Role",
          "name": "_role",
          "type": "uint8"
        }
      ],
      "name": "createCourse",
      "outputs": [
        {
          "components": [
            {
              "internalType": "uint256",
              "name": "id",
              "type": "uint256"
            },
            {
              "internalType": "string",
              "name": "title",
              "type": "string"
            },
            {
              "internalType": "string",
              "name": "description",
              "type": "string"
            },
            {
              "internalType": "address",
              "name": "teacher",
              "type": "address"
            },
            {
              "internalType": "address[]",
              "name": "students",
              "type": "address[]"
            },
            {
              "internalType": "uint256",
              "name": "tuitionFee",
              "type": "uint256"
            },
            {
              "internalType": "uint256",
              "name": "courseBalance",
              "type": "uint256"
            }
          ],
          "internalType": "struct DeCourse.CourseJoinState",
          "name": "",
          "type": "tuple"
        }
      ],
      "payable": true,
      "stateMutability": "payable",
      "type": "function"
    },
    {
      "constant": false,
      "inputs": [
        {
          "internalType": "uint256",
          "name": "_courseId",
          "type": "uint256"
        },
        {
          "internalType": "enum DeCourse.Role",
          "name": "_role",
          "type": "uint8"
        }
      ],
      "name": "joinCourse",
      "outputs": [],
      "payable": true,
      "stateMutability": "payable",
      "type": "function"
    },
    {
      "constant": false,
      "inputs": [
        {
          "internalType": "uint256",
          "name": "_courseId",
          "type": "uint256"
        }
      ],
      "name": "leaveCourse",
      "outputs": [
        {
          "internalType": "uint256",
          "name": "",
          "type": "uint256"
        }
      ],
      "payable": true,
      "stateMutability": "payable",
      "type": "function"
    },
    {
      "constant": true,
      "inputs": [],
      "name": "getCourseStates",
      "outputs": [
        {
          "components": [
            {
              "internalType": "uint256",
              "name": "id",
              "type": "uint256"
            },
            {
              "internalType": "string",
              "name": "title",
              "type": "string"
            },
            {
              "internalType": "string",
              "name": "description",
              "type": "string"
            },
            {
              "internalType": "address",
              "name": "teacher",
              "type": "address"
            },
            {
              "internalType": "address[]",
              "name": "students",
              "type": "address[]"
            },
            {
              "internalType": "uint256",
              "name": "tuitionFee",
              "type": "uint256"
            },
            {
              "internalType": "uint256",
              "name": "courseBalance",
              "type": "uint256"
            }
          ],
          "internalType": "struct DeCourse.CourseJoinState[]",
          "name": "",
          "type": "tuple[]"
        }
      ],
      "payable": false,
      "stateMutability": "view",
      "type": "function"
    },
    {
      "constant": true,
      "inputs": [
        {
          "internalType": "uint256",
          "name": "_courseId",
          "type": "uint256"
        }
      ],
      "name": "getCourseState",
      "outputs": [
        {
          "components": [
            {
              "internalType": "uint256",
              "name": "id",
              "type": "uint256"
            },
            {
              "internalType": "string",
              "name": "title",
              "type": "string"
            },
            {
              "internalType": "string",
              "name": "description",
              "type": "string"
            },
            {
              "internalType": "address",
              "name": "teacher",
              "type": "address"
            },
            {
              "internalType": "address[]",
              "name": "students",
              "type": "address[]"
            },
            {
              "internalType": "uint256",
              "name": "tuitionFee",
              "type": "uint256"
            },
            {
              "internalType": "uint256",
              "name": "courseBalance",
              "type": "uint256"
            }
          ],
          "internalType": "struct DeCourse.CourseJoinState",
          "name": "",
          "type": "tuple"
        }
      ],
      "payable": false,
      "stateMutability": "view",
      "type": "function"
    },
    {
      "constant": true,
      "inputs": [
        {
          "internalType": "uint256",
          "name": "_courseId",
          "type": "uint256"
        }
      ],
      "name": "getStudentsByCourseId",
      "outputs": [
        {
          "internalType": "address[]",
          "name": "",
          "type": "address[]"
        }
      ],
      "payable": false,
      "stateMutability": "view",
      "type": "function"
    },
    {
      "constant": true,
      "inputs": [
        {
          "internalType": "uint256",
          "name": "_courseId",
          "type": "uint256"
        },
        {
          "internalType": "address",
          "name": "_address",
          "type": "address"
        }
      ],
      "name": "isAddressInCourse",
      "outputs": [
        {
          "internalType": "bool",
          "name": "",
          "type": "bool"
        }
      ],
      "payable": false,
      "stateMutability": "view",
      "type": "function"
    },
    {
      "constant": true,
      "inputs": [
        {
          "internalType": "uint256",
          "name": "_courseId",
          "type": "uint256"
        }
      ],
      "name": "getTeacher",
      "outputs": [
        {
          "internalType": "address",
          "name": "",
          "type": "address"
        }
      ],
      "payable": false,
      "stateMutability": "view",
      "type": "function"
    },
    {
      "constant": false,
      "inputs": [],
      "name": "withdraw",
      "outputs": [],
      "payable": false,
      "stateMutability": "nonpayable",
      "type": "function"
    },
    {
      "constant": true,
      "inputs": [],
      "name": "getOwner",
      "outputs": [
        {
          "internalType": "address",
          "name": "",
          "type": "address"
        }
      ],
      "payable": false,
      "stateMutability": "view",
      "type": "function"
    },
    {
      "constant": true,
      "inputs": [
        {
          "internalType": "address",
          "name": "_address",
          "type": "address"
        }
      ],
      "name": "getAddressName",
      "outputs": [
        {
          "internalType": "string",
          "name": "",
          "type": "string"
        }
      ],
      "payable": false,
      "stateMutability": "view",
      "type": "function"
    },
    {
      "constant": false,
      "inputs": [
        {
          "internalType": "address",
          "name": "_address",
          "type": "address"
        },
        {
          "internalType": "string",
          "name": "_name",
          "type": "string"
        }
      ],
      "name": "setAddressName",
      "outputs": [],
      "payable": false,
      "stateMutability": "nonpayable",
      "type": "function"
    }
  ],
  "bytecode": "0x608060405234801561001057600080fd5b50336000806101000a81548173ffffffffffffffffffffffffffffffffffffffff021916908373ffffffffffffffffffffffffffffffffffffffff160217905550612fb7806100606000396000f3fe608060405260043610610105576000357c0100000000000000000000000000000000000000000000000000000000900480638da5cb5b116100a7578063c6d8354c11610076578063c6d8354c14610310578063dd2e41341461034d578063e3df00a71461038a578063ed072a07146103c757610105565b80638da5cb5b1461024a57806396f979d214610275578063988c2c55146102b7578063b105f01d146102d357610105565b80636c30cf29116100e35780636c30cf29146101755780637c33a6cc146101b2578063893d20e8146101ef5780638a2492bb1461021a57610105565b80633037c5ad1461010a5780633ccfd60b146101335780635e0099a81461014a575b600080fd5b34801561011657600080fd5b50610131600480360361012c9190810190612467565b6103f7565b005b34801561013f57600080fd5b506101486104c4565b005b34801561015657600080fd5b5061015f610524565b60405161016c9190612b5e565b60405180910390f35b34801561018157600080fd5b5061019c6004803603610197919081019061253a565b610801565b6040516101a99190612b3c565b60405180910390f35b3480156101be57600080fd5b506101d960048036036101d49190810190612563565b6109ab565b6040516101e69190612b80565b60405180910390f35b3480156101fb57600080fd5b50610204610a1e565b6040516102119190612b06565b60405180910390f35b610234600480360361022f91908101906124bb565b610a47565b6040516102419190612c3f565b60405180910390f35b34801561025657600080fd5b5061025f610ee3565b60405161026c9190612b06565b60405180910390f35b34801561028157600080fd5b5061029c6004803603610297919081019061253a565b610f08565b6040516102ae96959493929190612c7c565b60405180910390f35b6102d160048036036102cc919081019061259f565b6110a1565b005b3480156102df57600080fd5b506102fa60048036036102f5919081019061253a565b6117ed565b6040516103079190612b06565b60405180910390f35b34801561031c57600080fd5b506103376004803603610332919081019061243e565b611835565b6040516103449190612c61565b60405180910390f35b34801561035957600080fd5b50610374600480360361036f919081019061243e565b61184d565b6040516103819190612b9b565b60405180910390f35b34801561039657600080fd5b506103b160048036036103ac919081019061253a565b61192e565b6040516103be9190612c3f565b60405180910390f35b6103e160048036036103dc919081019061253a565b611ba2565b6040516103ee9190612c61565b60405180910390f35b80600160008473ffffffffffffffffffffffffffffffffffffffff1673ffffffffffffffffffffffffffffffffffffffff168152602001908152602001600020908051906020019061044a929190612094565b507f4df9dcd34ae35f40f2c756fd8ac83210ed0b76d065543ee73d868aec7c7fcf02600160008473ffffffffffffffffffffffffffffffffffffffff1673ffffffffffffffffffffffffffffffffffffffff1681526020019081526020016000206040516104b89190612bbd565b60405180910390a15050565b3373ffffffffffffffffffffffffffffffffffffffff166108fc3073ffffffffffffffffffffffffffffffffffffffff16319081150290604051600060405180830381858888f19350505050158015610521573d6000803e3d6000fd5b50565b60608060058054905060405190808252806020026020018201604052801561056657816020015b610553612114565b81526020019060019003908161054b5790505b50905060008090505b6005805490508110156107f95760006005828154811061058b57fe5b906000526020600020906009020190506040518060e0016040528082600001548152602001826001018054600181600116156101000203166002900480601f0160208091040260200160405190810160405280929190818152602001828054600181600116156101000203166002900480156106485780601f1061061d57610100808354040283529160200191610648565b820191906000526020600020905b81548152906001019060200180831161062b57829003601f168201915b50505050508152602001826002018054600181600116156101000203166002900480601f0160208091040260200160405190810160405280929190818152602001828054600181600116156101000203166002900480156106ea5780601f106106bf576101008083540402835291602001916106ea565b820191906000526020600020905b8154815290600101906020018083116106cd57829003601f168201915b505050505081526020018260030160009054906101000a900473ffffffffffffffffffffffffffffffffffffffff1673ffffffffffffffffffffffffffffffffffffffff168152602001826004018054806020026020016040519081016040528092919081815260200182805480156107b857602002820191906000526020600020905b8160009054906101000a900473ffffffffffffffffffffffffffffffffffffffff1673ffffffffffffffffffffffffffffffffffffffff168152602001906001019080831161076e575b505050505081526020018260050154815260200182600801548152508383815181106107e057fe5b602002602001018190525050808060010191505061056f565b508091505090565b606060006005838154811061081257fe5b9060005260206000209060090201905060008090506060826004018054905060405190808252806020026020018201604052801561085f5781602001602082028038833980820191505090505b50905060008090505b836004018054905081101561099f576001151584600701600086600401848154811061089057fe5b9060005260206000200160009054906101000a900473ffffffffffffffffffffffffffffffffffffffff1673ffffffffffffffffffffffffffffffffffffffff1673ffffffffffffffffffffffffffffffffffffffff16815260200190815260200160002060009054906101000a900460ff16151514156109925783600401818154811061091a57fe5b9060005260206000200160009054906101000a900473ffffffffffffffffffffffffffffffffffffffff1682848151811061095157fe5b602002602001019073ffffffffffffffffffffffffffffffffffffffff16908173ffffffffffffffffffffffffffffffffffffffff16815250506001830192505b8080600101915050610868565b50809350505050919050565b6000600583815481106109ba57fe5b906000526020600020906009020160070160008373ffffffffffffffffffffffffffffffffffffffff1673ffffffffffffffffffffffffffffffffffffffff16815260200190815260200160002060009054906101000a900460ff16905092915050565b60008060009054906101000a900473ffffffffffffffffffffffffffffffffffffffff16905090565b610a4f612167565b606060006005805490509050610a636121ba565b6040518060e00160405280838152602001888152602001878152602001600073ffffffffffffffffffffffffffffffffffffffff168152602001848152602001670de0b6b3a764000081526020016000815250905060058190806001815401808255809150509060018203906000526020600020906009020160009091929091909150600082015181600001556020820151816001019080519060200190610b0c92919061220d565b506040820151816002019080519060200190610b2992919061220d565b5060608201518160030160006101000a81548173ffffffffffffffffffffffffffffffffffffffff021916908373ffffffffffffffffffffffffffffffffffffffff1602179055506080820151816004019080519060200190610b8d92919061228d565b5060a0820151816005015560c08201518160080155505050610bad612167565b610bb68361192e565b9050827fc2fc24a4f8134b81fcda436372a113d5e3098c856f23cb03ddcdc015f90284ec82604051610be89190612c3f565b60405180910390a2600160058481548110610bff57fe5b906000526020600020906009020160070160003373ffffffffffffffffffffffffffffffffffffffff1673ffffffffffffffffffffffffffffffffffffffff16815260200190815260200160002060006101000a81548160ff021916908315150217905550600180811115610c7057fe5b866001811115610c7c57fe5b1415610dee578160a00151341015610cc9576040517f08c379a0000000000000000000000000000000000000000000000000000000008152600401610cc090612c1f565b60405180910390fd5b3460058481548110610cd757fe5b90600052602060002090600902016006016000865181526020019081526020016000208190555060058381548110610d0b57fe5b90600052602060002090600902016004013390806001815401808255809150509060018203906000526020600020016000909192909190916101000a81548173ffffffffffffffffffffffffffffffffffffffff021916908373ffffffffffffffffffffffffffffffffffffffff16021790555050600360003373ffffffffffffffffffffffffffffffffffffffff1673ffffffffffffffffffffffffffffffffffffffff168152602001908152602001600020839080600181540180825580915050906001820390600052602060002001600090919290919091505550610ed5565b60006001811115610dfb57fe5b866001811115610e0757fe5b1415610ed4573360058481548110610e1b57fe5b906000526020600020906009020160030160006101000a81548173ffffffffffffffffffffffffffffffffffffffff021916908373ffffffffffffffffffffffffffffffffffffffff160217905550600260003373ffffffffffffffffffffffffffffffffffffffff1673ffffffffffffffffffffffffffffffffffffffff1681526020019081526020016000208390806001815401808255809150509060018203906000526020600020016000909192909190915055505b5b809450505050509392505050565b6000809054906101000a900473ffffffffffffffffffffffffffffffffffffffff1681565b60058181548110610f1557fe5b9060005260206000209060090201600091509050806000015490806001018054600181600116156101000203166002900480601f016020809104026020016040519081016040528092919081815260200182805460018160011615610100020316600290048015610fc75780601f10610f9c57610100808354040283529160200191610fc7565b820191906000526020600020905b815481529060010190602001808311610faa57829003601f168201915b505050505090806002018054600181600116156101000203166002900480601f0160208091040260200160405190810160405280929190818152602001828054600181600116156101000203166002900480156110655780601f1061103a57610100808354040283529160200191611065565b820191906000526020600020905b81548152906001019060200180831161104857829003601f168201915b5050505050908060030160009054906101000a900473ffffffffffffffffffffffffffffffffffffffff16908060050154908060080154905086565b81816001808111156110af57fe5b8160018111156110bb57fe5b141561122d5760008090505b600360003373ffffffffffffffffffffffffffffffffffffffff1673ffffffffffffffffffffffffffffffffffffffff16815260200190815260200160002080549050811015611227576000600360003373ffffffffffffffffffffffffffffffffffffffff1673ffffffffffffffffffffffffffffffffffffffff168152602001908152602001600020828154811061115d57fe5b90600052602060002001549050600015156005828154811061117b57fe5b906000526020600020906009020160070160003373ffffffffffffffffffffffffffffffffffffffff1673ffffffffffffffffffffffffffffffffffffffff16815260200190815260200160002060009054906101000a900460ff16151514611219576040517f08c379a000000000000000000000000000000000000000000000000000000000815260040161121090612bdf565b60405180910390fd5b5080806001019150506110c7565b506113b5565b6000600181111561123a57fe5b81600181111561124657fe5b14156113b45760008090505b600260003373ffffffffffffffffffffffffffffffffffffffff1673ffffffffffffffffffffffffffffffffffffffff168152602001908152602001600020805490508110156113b2576000600260003373ffffffffffffffffffffffffffffffffffffffff1673ffffffffffffffffffffffffffffffffffffffff16815260200190815260200160002082815481106112e857fe5b90600052602060002001549050600015156005828154811061130657fe5b906000526020600020906009020160070160003373ffffffffffffffffffffffffffffffffffffffff1673ffffffffffffffffffffffffffffffffffffffff16815260200190815260200160002060009054906101000a900460ff161515146113a4576040517f08c379a000000000000000000000000000000000000000000000000000000000815260040161139b90612bdf565b60405180910390fd5b508080600101915050611252565b505b5b6000600585815481106113c457fe5b9060005260206000209060090201905060018160070160003373ffffffffffffffffffffffffffffffffffffffff1673ffffffffffffffffffffffffffffffffffffffff16815260200190815260200160002060006101000a81548160ff02191690831515021790555060018081111561143a57fe5b84600181111561144657fe5b141561161b578060050154341015611493576040517f08c379a000000000000000000000000000000000000000000000000000000000815260040161148a90612c1f565b60405180910390fd5b806004013390806001815401808255809150509060018203906000526020600020016000909192909190916101000a81548173ffffffffffffffffffffffffffffffffffffffff021916908373ffffffffffffffffffffffffffffffffffffffff16021790555050600360003373ffffffffffffffffffffffffffffffffffffffff1673ffffffffffffffffffffffffffffffffffffffff1681526020019081526020016000208590806001815401808255809150509060018203906000526020600020016000909192909190915055503481600601600060018460040180549050038152602001908152602001600020600082825401925050819055503481600801600082825401925050819055503373ffffffffffffffffffffffffffffffffffffffff167f90890809c654f11d6e72a28fa60149770a0d11ec6c92319d6ceb2bb0a4ea1a158260060160006001856004018054905003815260200190815260200160002054836008015460405161160e929190612ceb565b60405180910390a26117af565b6000600181111561162857fe5b84600181111561163457fe5b14156117ae57600073ffffffffffffffffffffffffffffffffffffffff166005868154811061165f57fe5b906000526020600020906009020160030160009054906101000a900473ffffffffffffffffffffffffffffffffffffffff1673ffffffffffffffffffffffffffffffffffffffff16146116e7576040517f08c379a00000000000000000000000000000000000000000000000000000000081526004016116de90612bff565b60405180910390fd5b33600586815481106116f557fe5b906000526020600020906009020160030160006101000a81548173ffffffffffffffffffffffffffffffffffffffff021916908373ffffffffffffffffffffffffffffffffffffffff160217905550600260003373ffffffffffffffffffffffffffffffffffffffff1673ffffffffffffffffffffffffffffffffffffffff1681526020019081526020016000208590806001815401808255809150509060018203906000526020600020016000909192909190915055505b5b7f333937f9ab8c671fddadfcfba8a104161eea7cb04d98dd1436a485a61d859c8f336040516117de9190612b21565b60405180910390a15050505050565b6000600582815481106117fc57fe5b906000526020600020906009020160030160009054906101000a900473ffffffffffffffffffffffffffffffffffffffff169050919050565b60046020528060005260406000206000915090505481565b6060600160008373ffffffffffffffffffffffffffffffffffffffff1673ffffffffffffffffffffffffffffffffffffffff1681526020019081526020016000208054600181600116156101000203166002900480601f0160208091040260200160405190810160405280929190818152602001828054600181600116156101000203166002900480156119225780601f106118f757610100808354040283529160200191611922565b820191906000526020600020905b81548152906001019060200180831161190557829003601f168201915b50505050509050919050565b611936612167565b60006005838154811061194557fe5b9060005260206000209060090201905061195d612167565b6040518060e0016040528083600001548152602001836001018054600181600116156101000203166002900480601f016020809104026020016040519081016040528092919081815260200182805460018160011615610100020316600290048015611a0a5780601f106119df57610100808354040283529160200191611a0a565b820191906000526020600020905b8154815290600101906020018083116119ed57829003601f168201915b50505050508152602001836002018054600181600116156101000203166002900480601f016020809104026020016040519081016040528092919081815260200182805460018160011615610100020316600290048015611aac5780601f10611a8157610100808354040283529160200191611aac565b820191906000526020600020905b815481529060010190602001808311611a8f57829003601f168201915b505050505081526020018360030160009054906101000a900473ffffffffffffffffffffffffffffffffffffffff1673ffffffffffffffffffffffffffffffffffffffff16815260200183600401805480602002602001604051908101604052809291908181526020018280548015611b7a57602002820191906000526020600020905b8160009054906101000a900473ffffffffffffffffffffffffffffffffffffffff1673ffffffffffffffffffffffffffffffffffffffff1681526020019060010190808311611b30575b5050505050815260200183600501548152602001836008015481525090508092505050919050565b60008060058381548110611bb257fe5b9060005260206000209060090201905060008160040190503373ffffffffffffffffffffffffffffffffffffffff168260030160009054906101000a900473ffffffffffffffffffffffffffffffffffffffff1673ffffffffffffffffffffffffffffffffffffffff161415611c785760008260030160006101000a81548173ffffffffffffffffffffffffffffffffffffffff021916908373ffffffffffffffffffffffffffffffffffffffff160217905550611c738260000154611eee565b611e52565b60008090505b8180549050811015611e50573373ffffffffffffffffffffffffffffffffffffffff16828281548110611cad57fe5b9060005260206000200160009054906101000a900473ffffffffffffffffffffffffffffffffffffffff1673ffffffffffffffffffffffffffffffffffffffff16148015611d4d5750600115158360070160003373ffffffffffffffffffffffffffffffffffffffff1673ffffffffffffffffffffffffffffffffffffffff16815260200190815260200160002060009054906101000a900460ff161515145b15611e435760008360060160008381526020019081526020016000205490503373ffffffffffffffffffffffffffffffffffffffff166108fc829081150290604051600060405180830381858888f19350505050158015611db2573d6000803e3d6000fd5b508084600801600082825403925050819055503373ffffffffffffffffffffffffffffffffffffffff167f73f04af9dcc582a923ec15d3eea990fe34adabfff2879e28d44572e01a54abb6828660080154604051611e11929190612ceb565b60405180910390a2600084600601600084815260200190815260200160002081905550611e418460000154611fc1565b505b8080600101915050611c7e565b505b600060058581548110611e6157fe5b906000526020600020906009020160070160003373ffffffffffffffffffffffffffffffffffffffff1673ffffffffffffffffffffffffffffffffffffffff16815260200190815260200160002060006101000a81548160ff02191690831515021790555060058481548110611ed357fe5b90600052602060002090600902016000015492505050919050565b6000600260003373ffffffffffffffffffffffffffffffffffffffff1673ffffffffffffffffffffffffffffffffffffffff168152602001908152602001600020905060008090505b8180549050811015611fbc5782828281548110611f5057fe5b90600052602060002001541415611faf5781600183805490500381548110611f7457fe5b9060005260206000200154828281548110611f8b57fe5b906000526020600020018190555081805480919060019003611fad9190612317565b505b8080600101915050611f37565b505050565b6000600360003373ffffffffffffffffffffffffffffffffffffffff1673ffffffffffffffffffffffffffffffffffffffff168152602001908152602001600020905060008090505b818054905081101561208f578282828154811061202357fe5b90600052602060002001541415612082578160018380549050038154811061204757fe5b906000526020600020015482828154811061205e57fe5b9060005260206000200181905550818054809190600190036120809190612317565b505b808060010191505061200a565b505050565b828054600181600116156101000203166002900490600052602060002090601f016020900481019282601f106120d557805160ff1916838001178555612103565b82800160010185558215612103579182015b828111156121025782518255916020019190600101906120e7565b5b5090506121109190612343565b5090565b6040518060e00160405280600081526020016060815260200160608152602001600073ffffffffffffffffffffffffffffffffffffffff1681526020016060815260200160008152602001600081525090565b6040518060e00160405280600081526020016060815260200160608152602001600073ffffffffffffffffffffffffffffffffffffffff1681526020016060815260200160008152602001600081525090565b6040518060e00160405280600081526020016060815260200160608152602001600073ffffffffffffffffffffffffffffffffffffffff1681526020016060815260200160008152602001600081525090565b828054600181600116156101000203166002900490600052602060002090601f016020900481019282601f1061224e57805160ff191683800117855561227c565b8280016001018555821561227c579182015b8281111561227b578251825591602001919060010190612260565b5b5090506122899190612343565b5090565b828054828255906000526020600020908101928215612306579160200282015b828111156123055782518260006101000a81548173ffffffffffffffffffffffffffffffffffffffff021916908373ffffffffffffffffffffffffffffffffffffffff160217905550916020019190600101906122ad565b5b5090506123139190612368565b5090565b81548183558181111561233e5781836000526020600020918201910161233d9190612343565b5b505050565b61236591905b80821115612361576000816000905550600101612349565b5090565b90565b6123a891905b808211156123a457600081816101000a81549073ffffffffffffffffffffffffffffffffffffffff02191690555060010161236e565b5090565b90565b6000813590506123ba81612f36565b92915050565b6000813590506123cf81612f4d565b92915050565b600082601f8301126123e657600080fd5b81356123f96123f482612d41565b612d14565b9150808252602083016020830185838301111561241557600080fd5b612420838284612ee3565b50505092915050565b60008135905061243881612f5d565b92915050565b60006020828403121561245057600080fd5b600061245e848285016123ab565b91505092915050565b6000806040838503121561247a57600080fd5b6000612488858286016123ab565b925050602083013567ffffffffffffffff8111156124a557600080fd5b6124b1858286016123d5565b9150509250929050565b6000806000606084860312156124d057600080fd5b600084013567ffffffffffffffff8111156124ea57600080fd5b6124f6868287016123d5565b935050602084013567ffffffffffffffff81111561251357600080fd5b61251f868287016123d5565b9250506040612530868287016123c0565b9150509250925092565b60006020828403121561254c57600080fd5b600061255a84828501612429565b91505092915050565b6000806040838503121561257657600080fd5b600061258485828601612429565b9250506020612595858286016123ab565b9150509250929050565b600080604083850312156125b257600080fd5b60006125c085828601612429565b92505060206125d1858286016123c0565b9150509250929050565b60006125e78383612616565b60208301905092915050565b60006125ff8383612a3e565b905092915050565b61261081612ead565b82525050565b61261f81612e65565b82525050565b61262e81612e65565b82525050565b600061263f82612dbd565b6126498185612e21565b935061265483612d7d565b8060005b8381101561268557815161266c88826125db565b975061267783612df6565b925050600181019050612658565b5085935050505092915050565b600061269d82612db2565b6126a78185612e10565b93506126b283612d6d565b8060005b838110156126e35781516126ca88826125db565b97506126d583612de9565b9250506001810190506126b6565b5085935050505092915050565b60006126fb82612dc8565b6127058185612e32565b93508360208202850161271785612d8d565b8060005b85811015612753578484038952815161273485826125f3565b945061273f83612e03565b925060208a0199505060018101905061271b565b50829750879550505050505092915050565b61276e81612e77565b82525050565b600061277f82612dde565b6127898185612e54565b9350612799818560208601612ef2565b6127a281612f25565b840191505092915050565b60006127b882612dd3565b6127c28185612e43565b93506127d2818560208601612ef2565b6127db81612f25565b840191505092915050565b60006127f182612dd3565b6127fb8185612e54565b935061280b818560208601612ef2565b61281481612f25565b840191505092915050565b60008154600181166000811461283c5760018114612862576128a6565b607f600283041661284d8187612e54565b955060ff1983168652602086019350506128a6565b600282046128708187612e54565b955061287b85612d9d565b60005b8281101561289d5781548189015260018201915060208101905061287e565b80880195505050505b505092915050565b60006128bb602083612e54565b91507f43616e74206a6f696e207468652073616d6520636f75727365207477696365216000830152602082019050919050565b60006128fb601a83612e54565b91507f5468652074656163686572206973206e6f7420656d70747921210000000000006000830152602082019050919050565b600061293b602383612e54565b91507f7468652073747564656e7420646f65736e74206861766520656e6f756768206660008301527f65652e00000000000000000000000000000000000000000000000000000000006020830152604082019050919050565b600060e0830160008301516129ac6000860182612ae8565b50602083015184820360208601526129c482826127ad565b915050604083015184820360408601526129de82826127ad565b91505060608301516129f36060860182612616565b5060808301518482036080860152612a0b8282612692565b91505060a0830151612a2060a0860182612ae8565b5060c0830151612a3360c0860182612ae8565b508091505092915050565b600060e083016000830151612a566000860182612ae8565b5060208301518482036020860152612a6e82826127ad565b91505060408301518482036040860152612a8882826127ad565b9150506060830151612a9d6060860182612616565b5060808301518482036080860152612ab58282612692565b91505060a0830151612aca60a0860182612ae8565b5060c0830151612add60c0860182612ae8565b508091505092915050565b612af181612ea3565b82525050565b612b0081612ea3565b82525050565b6000602082019050612b1b6000830184612625565b92915050565b6000602082019050612b366000830184612607565b92915050565b60006020820190508181036000830152612b568184612634565b905092915050565b60006020820190508181036000830152612b7881846126f0565b905092915050565b6000602082019050612b956000830184612765565b92915050565b60006020820190508181036000830152612bb58184612774565b905092915050565b60006020820190508181036000830152612bd7818461281f565b905092915050565b60006020820190508181036000830152612bf8816128ae565b9050919050565b60006020820190508181036000830152612c18816128ee565b9050919050565b60006020820190508181036000830152612c388161292e565b9050919050565b60006020820190508181036000830152612c598184612994565b905092915050565b6000602082019050612c766000830184612af7565b92915050565b600060c082019050612c916000830189612af7565b8181036020830152612ca381886127e6565b90508181036040830152612cb781876127e6565b9050612cc66060830186612625565b612cd36080830185612af7565b612ce060a0830184612af7565b979650505050505050565b6000604082019050612d006000830185612af7565b612d0d6020830184612af7565b9392505050565b6000604051905081810181811067ffffffffffffffff82111715612d3757600080fd5b8060405250919050565b600067ffffffffffffffff821115612d5857600080fd5b601f19601f8301169050602081019050919050565b6000819050602082019050919050565b6000819050602082019050919050565b6000819050602082019050919050565b60008190508160005260206000209050919050565b600081519050919050565b600081519050919050565b600081519050919050565b600081519050919050565b600081519050919050565b6000602082019050919050565b6000602082019050919050565b6000602082019050919050565b600082825260208201905092915050565b600082825260208201905092915050565b600082825260208201905092915050565b600082825260208201905092915050565b600082825260208201905092915050565b6000612e7082612e83565b9050919050565b60008115159050919050565b600073ffffffffffffffffffffffffffffffffffffffff82169050919050565b6000819050919050565b6000612eb882612ebf565b9050919050565b6000612eca82612ed1565b9050919050565b6000612edc82612e83565b9050919050565b82818337600083830152505050565b60005b83811015612f10578082015181840152602081019050612ef5565b83811115612f1f576000848401525b50505050565b6000601f19601f8301169050919050565b612f3f81612e65565b8114612f4a57600080fd5b50565b60028110612f5a57600080fd5b50565b612f6681612ea3565b8114612f7157600080fd5b5056fea365627a7a7231582070912890c64642781ad344c3c73426d9c18e830fb5acac3002ed16fe8ee5cb406c6578706572696d656e74616cf564736f6c634300050c0040",
  "source": "pragma solidity ^0.5.2;\npragma experimental ABIEncoderV2;\nimport \"@openzeppelin/contracts/math/SafeMath.sol\";\n\n\ncontract DeCourse {\n    // mapping(address => uint) public balances;\n    address public owner;\n\n    constructor() public{\n        owner = msg.sender;\n    }\n\n\n    enum Role { Teacher,Student  }\n    \n    struct Course{\n        uint id;\n        string title;  \n        string description;\n        address teacher;\n        address[] students;\n        uint tuitionFee; \n        mapping (uint => uint) studentIndexToTuitionFee;\n        mapping(address => bool) addressToJoinState;\n        uint courseBalance;\n    }\n    struct CourseJoinState{\n        uint id;\n        string title;  \n        string description;\n        address teacher;\n        address[] students;\n        uint tuitionFee; \n        uint courseBalance;\n    }\n    event JoinCourse(\n        address targetAddress\n    );\n    event CreateCourse(\n        uint256 indexed _courseId, \n        CourseJoinState  _courseJoinState\n    );\n\n    event Refund(\n        address indexed _student,\n        uint _value,\n        uint _courseRemainBalance\n    );\n\n    event SetName(string _username);\n    \n    event Deposit(\n        address indexed _student,\n        uint _value, \n        uint _courseRemainBalance\n    );\n\n    mapping(address=>string) addressToName;\n    mapping (address=>uint[]) addressToTeacherCourse; \n    mapping (address=>uint[]) addressToStudentCourse; \n    mapping (address=>uint) public addressToTuitionFee;  \n    Course[]  public courses;\n    \n    modifier haventJoinTheCourse (uint _courseId, Role _role) {\n        if(_role == Role.Student){\n            for(uint i=0; i<addressToStudentCourse[msg.sender].length;i++){\n                uint  courseId  = addressToStudentCourse[msg.sender][i];\n                //the courseId is the same as the courses index.\n                require(courses[courseId].addressToJoinState[msg.sender]  == false ,\"Cant join the same course twice!\");\n            } \n        }else if(_role == Role.Teacher){\n            for(uint i=0; i<addressToTeacherCourse[msg.sender].length;i++){\n                uint  courseId  = addressToTeacherCourse[msg.sender][i];\n                require(courses[courseId].addressToJoinState[msg.sender] == false , \"Cant join the same course twice!\");\n            } \n        }\n        _; \n    }\n    \n    \n    function createCourse (string memory _title, string memory _description, Role _role)  \n        payable\n        public \n        returns (CourseJoinState memory) {   \n        \n        address[] memory students ;\n        uint newCourseId = courses.length;\n        // students.push(msg.sender);\n\n        Course memory newCourse = Course({\n            id:newCourseId ,\n            title:_title,\n            description:_description,\n            teacher:address(0),\n            students:students,\n            tuitionFee:1 ether,\n            courseBalance:0\n        });\n        \n        courses.push(newCourse); \n        \n        CourseJoinState memory newCourseState = getCourseState(newCourseId); \n        emit CreateCourse(newCourseId,newCourseState) ;\n\n        courses[newCourseId].addressToJoinState[msg.sender] = true; \n\n        if (_role == Role.Student) {\n            require(msg.value >= newCourse.tuitionFee,\"the student doesnt have enough fee.\");\n            //students.length is the student index before push into student array.\n            courses[newCourseId].studentIndexToTuitionFee[students.length] = msg.value;\n            courses[newCourseId].students.push(msg.sender);\n            addressToStudentCourse[msg.sender].push(newCourseId);\n            \n            \n        }else if (_role == Role.Teacher) {\n            courses[newCourseId].teacher = msg.sender; \n            addressToTeacherCourse[msg.sender].push(newCourseId);\n        }\n        \n            \n        return  newCourseState;\n        \n    }\n    \n    \n    function joinCourse(uint _courseId  , Role _role) \n        haventJoinTheCourse(_courseId,_role)\n        payable \n        public {\n        Course storage targetCourse = courses[_courseId]; \n        targetCourse.addressToJoinState[msg.sender] = true; \n\n        if (_role == Role.Student) {\n            require(msg.value >= targetCourse.tuitionFee,\"the student doesnt have enough fee.\");\n            targetCourse.students.push(msg.sender);             \n            addressToStudentCourse[msg.sender].push(_courseId);\n            //course fee\n            targetCourse.studentIndexToTuitionFee[targetCourse.students.length-1] += msg.value;\n            targetCourse.courseBalance += msg.value;\n            emit Deposit(\n                msg.sender,\n                targetCourse.studentIndexToTuitionFee[targetCourse.students.length-1],\n                targetCourse.courseBalance);\n\n        }else if(_role == Role.Teacher){\n            require (courses[_courseId].teacher == address(0),\"The teacher is not empty!!\"); \n            courses[_courseId].teacher = msg.sender; \n            addressToTeacherCourse[msg.sender].push(_courseId);\n        }\n        emit JoinCourse(msg.sender) ;\n\n            \n    } \n\n    \n    function leaveCourse(uint _courseId  ) \n        payable \n        public \n        returns(uint) {\n            Course storage targetCourse = courses[_courseId];       \n            address[] storage students  = targetCourse.students;\n            \n                \n            if (targetCourse.teacher==msg.sender){\n                targetCourse.teacher = address(0);\n                removeFromCourseTeacher(targetCourse.id);\n            } else {\n                \n                \n               for (uint i = 0; i<students.length; i++){\n                   if(students[i]==msg.sender && targetCourse.addressToJoinState[msg.sender]==true){\n                       //refund when a student leave the course\n                       uint studentTuitionFee = targetCourse.studentIndexToTuitionFee[i];\n                        msg.sender.transfer(studentTuitionFee);\n\n                        targetCourse.courseBalance -= studentTuitionFee;\n                        emit Refund(msg.sender,studentTuitionFee,targetCourse.courseBalance ); \n                        targetCourse.studentIndexToTuitionFee[i] = 0; \n                        \n                        removeFromCourseStudent(targetCourse.id);\n                   } \n               }\n            }\n            courses[_courseId].addressToJoinState[msg.sender] = false; \n            \n            return courses[_courseId].id;\n    }   \n     \n\n    \n     \n    function removeFromCourseTeacher  (uint _courseId) private {\n        uint[] storage teacherCourse =  addressToTeacherCourse[msg.sender]; \n        for (uint i=0; i<teacherCourse.length;i++){\n            if(teacherCourse[i]==_courseId){\n               teacherCourse[i] = teacherCourse[teacherCourse.length-1];\n               teacherCourse.length--;\n            }\n        }\n    }\n    function removeFromCourseStudent  (uint _courseId) private {\n        uint[] storage studentCourse =  addressToStudentCourse[msg.sender]; \n        for (uint i=0; i<studentCourse.length;i++){\n            if(studentCourse[i]==_courseId){\n               studentCourse[i] = studentCourse[studentCourse.length-1];\n               studentCourse.length--;\n            }\n        }\n    }\n    function getCourseStates() public view returns(CourseJoinState[] memory){\n        CourseJoinState[] memory courseJoinStates = new CourseJoinState[](courses.length); \n        for (uint i=0; i<courses.length; i++){\n            Course storage targetCourse  = courses[i];\n             courseJoinStates[i] =  CourseJoinState({\n                id: targetCourse.id,\n                title: targetCourse.title,\n                description: targetCourse.description,\n                teacher: targetCourse.teacher,\n                students: targetCourse.students,\n                tuitionFee: targetCourse.tuitionFee,\n                courseBalance : targetCourse.courseBalance\n          });\n        }\n        return courseJoinStates;   \n    }\n    function getCourseState(uint _courseId) public view returns(CourseJoinState memory){\n          Course storage targetCourse = courses[_courseId];\n          CourseJoinState memory courseState =  CourseJoinState({\n                id: targetCourse.id,\n                title: targetCourse.title,\n                description: targetCourse.description,\n                teacher: targetCourse.teacher,\n                students: targetCourse.students,\n                tuitionFee: targetCourse.tuitionFee,\n                courseBalance : targetCourse.courseBalance\n          });\n          return courseState ;\n    }\n    \n    function getStudentsByCourseId(uint _courseId) public view returns(address[] memory ){\n        Course storage targetCourse = courses[_courseId] ; \n        uint  studentIndex = 0;\n        address[] memory validStudent =new address[](targetCourse.students.length);\n\n        for(uint i=0; i<targetCourse.students.length; i++){\n            if( targetCourse.addressToJoinState[targetCourse.students[i]] == true){\n                validStudent[studentIndex] = targetCourse.students[i];\n                studentIndex+=1;\n            }\n        }\n        return validStudent;     \n    }\n    \n    function isAddressInCourse(uint _courseId, address _address) public view returns(bool){\n            return courses[_courseId].addressToJoinState[_address];\n    }\n\n    function getTeacher(uint _courseId) public view returns(address ){\n        return courses[_courseId].teacher;     \n    }\n    \n    function withdraw() public {\n        msg.sender.transfer(address(this).balance);\n    }\n    function getOwner() public view returns (address){\n        return owner;\n    }\n    function getAddressName(address _address) public view  returns (string memory){\n        return addressToName[_address];\n    } \n    function setAddressName(address _address, string memory _name) public {\n         addressToName[_address] = _name;  \n         emit SetName(addressToName[_address]);\n    } \n   \n    \n}",
  "sourcePath": "/Users/mujing/BlockChain/DeCourse/contracts/DeCourse.sol",
  "compiler": {
    "name": "solc",
    "version": "0.5.12+commit.7709ece9.Emscripten.clang"
  },
  "schemaVersion": "3.0.19",
  "updatedAt": "2019-12-07T20:51:14.507Z",
  "networkType": "ethereum",
  "devdoc": {
    "methods": {}
  },
  "userdoc": {
    "methods": {}
  }
}